{
  "_format": "hh-sol-artifact-1",
  "contractName": "MiniNFT",
  "sourceName": "contracts/MiniNFT.sol",
  "abi": [
    {
      "inputs": [],
      "stateMutability": "nonpayable",
      "type": "constructor"
    },
    {
      "inputs": [],
      "name": "ERC721EnumerableForbiddenBatchMint",
      "type": "error"
    },
    {
      "inputs": [
        {
          "internalType": "address",
          "name": "sender",
          "type": "address"
        },
        {
          "internalType": "uint256",
          "name": "tokenId",
          "type": "uint256"
        },
        {
          "internalType": "address",
          "name": "owner",
          "type": "address"
        }
      ],
      "name": "ERC721IncorrectOwner",
      "type": "error"
    },
    {
      "inputs": [
        {
          "internalType": "address",
          "name": "operator",
          "type": "address"
        },
        {
          "internalType": "uint256",
          "name": "tokenId",
          "type": "uint256"
        }
      ],
      "name": "ERC721InsufficientApproval",
      "type": "error"
    },
    {
      "inputs": [
        {
          "internalType": "address",
          "name": "approver",
          "type": "address"
        }
      ],
      "name": "ERC721InvalidApprover",
      "type": "error"
    },
    {
      "inputs": [
        {
          "internalType": "address",
          "name": "operator",
          "type": "address"
        }
      ],
      "name": "ERC721InvalidOperator",
      "type": "error"
    },
    {
      "inputs": [
        {
          "internalType": "address",
          "name": "owner",
          "type": "address"
        }
      ],
      "name": "ERC721InvalidOwner",
      "type": "error"
    },
    {
      "inputs": [
        {
          "internalType": "address",
          "name": "receiver",
          "type": "address"
        }
      ],
      "name": "ERC721InvalidReceiver",
      "type": "error"
    },
    {
      "inputs": [
        {
          "internalType": "address",
          "name": "sender",
          "type": "address"
        }
      ],
      "name": "ERC721InvalidSender",
      "type": "error"
    },
    {
      "inputs": [
        {
          "internalType": "uint256",
          "name": "tokenId",
          "type": "uint256"
        }
      ],
      "name": "ERC721NonexistentToken",
      "type": "error"
    },
    {
      "inputs": [
        {
          "internalType": "address",
          "name": "owner",
          "type": "address"
        },
        {
          "internalType": "uint256",
          "name": "index",
          "type": "uint256"
        }
      ],
      "name": "ERC721OutOfBoundsIndex",
      "type": "error"
    },
    {
      "inputs": [],
      "name": "EnforcedPause",
      "type": "error"
    },
    {
      "inputs": [],
      "name": "ExpectedPause",
      "type": "error"
    },
    {
      "inputs": [
        {
          "internalType": "address",
          "name": "owner",
          "type": "address"
        }
      ],
      "name": "OwnableInvalidOwner",
      "type": "error"
    },
    {
      "inputs": [
        {
          "internalType": "address",
          "name": "account",
          "type": "address"
        }
      ],
      "name": "OwnableUnauthorizedAccount",
      "type": "error"
    },
    {
      "inputs": [],
      "name": "ReentrancyGuardReentrantCall",
      "type": "error"
    },
    {
      "anonymous": false,
      "inputs": [
        {
          "indexed": true,
          "internalType": "address",
          "name": "owner",
          "type": "address"
        },
        {
          "indexed": true,
          "internalType": "address",
          "name": "approved",
          "type": "address"
        },
        {
          "indexed": true,
          "internalType": "uint256",
          "name": "tokenId",
          "type": "uint256"
        }
      ],
      "name": "Approval",
      "type": "event"
    },
    {
      "anonymous": false,
      "inputs": [
        {
          "indexed": true,
          "internalType": "address",
          "name": "owner",
          "type": "address"
        },
        {
          "indexed": true,
          "internalType": "address",
          "name": "operator",
          "type": "address"
        },
        {
          "indexed": false,
          "internalType": "bool",
          "name": "approved",
          "type": "bool"
        }
      ],
      "name": "ApprovalForAll",
      "type": "event"
    },
    {
      "anonymous": false,
      "inputs": [
        {
          "indexed": true,
          "internalType": "uint256",
          "name": "courseId",
          "type": "uint256"
        },
        {
          "indexed": false,
          "internalType": "string",
          "name": "cid",
          "type": "string"
        }
      ],
      "name": "CourseCIDSet",
      "type": "event"
    },
    {
      "anonymous": false,
      "inputs": [
        {
          "indexed": true,
          "internalType": "address",
          "name": "user",
          "type": "address"
        },
        {
          "indexed": true,
          "internalType": "uint256",
          "name": "courseId",
          "type": "uint256"
        },
        {
          "indexed": false,
          "internalType": "uint256",
          "name": "tokenId",
          "type": "uint256"
        },
        {
          "indexed": false,
          "internalType": "string",
          "name": "tokenURI",
          "type": "string"
        }
      ],
      "name": "NFTMinted",
      "type": "event"
    },
    {
      "anonymous": false,
      "inputs": [
        {
          "indexed": true,
          "internalType": "address",
          "name": "previousOwner",
          "type": "address"
        },
        {
          "indexed": true,
          "internalType": "address",
          "name": "newOwner",
          "type": "address"
        }
      ],
      "name": "OwnershipTransferred",
      "type": "event"
    },
    {
      "anonymous": false,
      "inputs": [
        {
          "indexed": false,
          "internalType": "address",
          "name": "account",
          "type": "address"
        }
      ],
      "name": "Paused",
      "type": "event"
    },
    {
      "anonymous": false,
      "inputs": [
        {
          "indexed": true,
          "internalType": "address",
          "name": "from",
          "type": "address"
        },
        {
          "indexed": true,
          "internalType": "address",
          "name": "to",
          "type": "address"
        },
        {
          "indexed": true,
          "internalType": "uint256",
          "name": "tokenId",
          "type": "uint256"
        }
      ],
      "name": "Transfer",
      "type": "event"
    },
    {
      "anonymous": false,
      "inputs": [
        {
          "indexed": false,
          "internalType": "address",
          "name": "account",
          "type": "address"
        }
      ],
      "name": "Unpaused",
      "type": "event"
    },
    {
      "inputs": [
        {
          "internalType": "address",
          "name": "to",
          "type": "address"
        },
        {
          "internalType": "uint256",
          "name": "tokenId",
          "type": "uint256"
        }
      ],
      "name": "approve",
      "outputs": [],
      "stateMutability": "nonpayable",
      "type": "function"
    },
    {
      "inputs": [
        {
          "internalType": "address",
          "name": "owner",
          "type": "address"
        }
      ],
      "name": "balanceOf",
      "outputs": [
        {
          "internalType": "uint256",
          "name": "",
          "type": "uint256"
        }
      ],
      "stateMutability": "view",
      "type": "function"
    },
    {
      "inputs": [
        {
          "internalType": "uint256",
          "name": "",
          "type": "uint256"
        }
      ],
      "name": "courseCIDs",
      "outputs": [
        {
          "internalType": "string",
          "name": "",
          "type": "string"
        }
      ],
      "stateMutability": "view",
      "type": "function"
    },
    {
      "inputs": [
        {
          "internalType": "uint256",
          "name": "",
          "type": "uint256"
        }
      ],
      "name": "courseNFTCount",
      "outputs": [
        {
          "internalType": "uint256",
          "name": "",
          "type": "uint256"
        }
      ],
      "stateMutability": "view",
      "type": "function"
    },
    {
      "inputs": [
        {
          "internalType": "uint256",
          "name": "tokenId",
          "type": "uint256"
        }
      ],
      "name": "getApproved",
      "outputs": [
        {
          "internalType": "address",
          "name": "",
          "type": "address"
        }
      ],
      "stateMutability": "view",
      "type": "function"
    },
    {
      "inputs": [
        {
          "internalType": "uint256",
          "name": "courseId",
          "type": "uint256"
        }
      ],
      "name": "getCourseNFTInfo",
      "outputs": [
        {
          "internalType": "string",
          "name": "cid",
          "type": "string"
        },
        {
          "internalType": "uint256",
          "name": "totalMinted",
          "type": "uint256"
        },
        {
          "internalType": "bool",
          "name": "exists",
          "type": "bool"
        }
      ],
      "stateMutability": "view",
      "type": "function"
    },
    {
      "inputs": [
        {
          "internalType": "address",
          "name": "owner",
          "type": "address"
        }
      ],
      "name": "getTokensByOwner",
      "outputs": [
        {
          "internalType": "uint256[]",
          "name": "",
          "type": "uint256[]"
        }
      ],
      "stateMutability": "view",
      "type": "function"
    },
    {
      "inputs": [
        {
          "internalType": "address",
          "name": "",
          "type": "address"
        },
        {
          "internalType": "uint256",
          "name": "",
          "type": "uint256"
        }
      ],
      "name": "hasClaimed",
      "outputs": [
        {
          "internalType": "bool",
          "name": "",
          "type": "bool"
        }
      ],
      "stateMutability": "view",
      "type": "function"
    },
    {
      "inputs": [
        {
          "internalType": "address",
          "name": "user",
          "type": "address"
        },
        {
          "internalType": "uint256",
          "name": "courseId",
          "type": "uint256"
        }
      ],
      "name": "hasClaimedNFT",
      "outputs": [
        {
          "internalType": "bool",
          "name": "",
          "type": "bool"
        }
      ],
      "stateMutability": "view",
      "type": "function"
    },
    {
      "inputs": [
        {
          "internalType": "address",
          "name": "owner",
          "type": "address"
        },
        {
          "internalType": "address",
          "name": "operator",
          "type": "address"
        }
      ],
      "name": "isApprovedForAll",
      "outputs": [
        {
          "internalType": "bool",
          "name": "",
          "type": "bool"
        }
      ],
      "stateMutability": "view",
      "type": "function"
    },
    {
      "inputs": [
        {
          "internalType": "uint256",
          "name": "courseId",
          "type": "uint256"
        },
        {
          "internalType": "uint256",
          "name": "value",
          "type": "uint256"
        }
      ],
      "name": "mintNFT",
      "outputs": [],
      "stateMutability": "nonpayable",
      "type": "function"
    },
    {
      "inputs": [],
      "name": "name",
      "outputs": [
        {
          "internalType": "string",
          "name": "",
          "type": "string"
        }
      ],
      "stateMutability": "view",
      "type": "function"
    },
    {
      "inputs": [],
      "name": "owner",
      "outputs": [
        {
          "internalType": "address",
          "name": "",
          "type": "address"
        }
      ],
      "stateMutability": "view",
      "type": "function"
    },
    {
      "inputs": [
        {
          "internalType": "uint256",
          "name": "tokenId",
          "type": "uint256"
        }
      ],
      "name": "ownerOf",
      "outputs": [
        {
          "internalType": "address",
          "name": "",
          "type": "address"
        }
      ],
      "stateMutability": "view",
      "type": "function"
    },
    {
      "inputs": [],
      "name": "pause",
      "outputs": [],
      "stateMutability": "nonpayable",
      "type": "function"
    },
    {
      "inputs": [],
      "name": "paused",
      "outputs": [
        {
          "internalType": "bool",
          "name": "",
          "type": "bool"
        }
      ],
      "stateMutability": "view",
      "type": "function"
    },
    {
      "inputs": [],
      "name": "renounceOwnership",
      "outputs": [],
      "stateMutability": "nonpayable",
      "type": "function"
    },
    {
      "inputs": [
        {
          "internalType": "address",
          "name": "from",
          "type": "address"
        },
        {
          "internalType": "address",
          "name": "to",
          "type": "address"
        },
        {
          "internalType": "uint256",
          "name": "tokenId",
          "type": "uint256"
        }
      ],
      "name": "safeTransferFrom",
      "outputs": [],
      "stateMutability": "nonpayable",
      "type": "function"
    },
    {
      "inputs": [
        {
          "internalType": "address",
          "name": "from",
          "type": "address"
        },
        {
          "internalType": "address",
          "name": "to",
          "type": "address"
        },
        {
          "internalType": "uint256",
          "name": "tokenId",
          "type": "uint256"
        },
        {
          "internalType": "bytes",
          "name": "data",
          "type": "bytes"
        }
      ],
      "name": "safeTransferFrom",
      "outputs": [],
      "stateMutability": "nonpayable",
      "type": "function"
    },
    {
      "inputs": [
        {
          "internalType": "address",
          "name": "operator",
          "type": "address"
        },
        {
          "internalType": "bool",
          "name": "approved",
          "type": "bool"
        }
      ],
      "name": "setApprovalForAll",
      "outputs": [],
      "stateMutability": "nonpayable",
      "type": "function"
    },
    {
      "inputs": [
        {
          "internalType": "uint256",
          "name": "courseId",
          "type": "uint256"
        },
        {
          "internalType": "string",
          "name": "cid",
          "type": "string"
        }
      ],
      "name": "setCourseCID",
      "outputs": [],
      "stateMutability": "nonpayable",
      "type": "function"
    },
    {
      "inputs": [
        {
          "internalType": "bytes4",
          "name": "interfaceId",
          "type": "bytes4"
        }
      ],
      "name": "supportsInterface",
      "outputs": [
        {
          "internalType": "bool",
          "name": "",
          "type": "bool"
        }
      ],
      "stateMutability": "view",
      "type": "function"
    },
    {
      "inputs": [],
      "name": "symbol",
      "outputs": [
        {
          "internalType": "string",
          "name": "",
          "type": "string"
        }
      ],
      "stateMutability": "view",
      "type": "function"
    },
    {
      "inputs": [
        {
          "internalType": "uint256",
          "name": "index",
          "type": "uint256"
        }
      ],
      "name": "tokenByIndex",
      "outputs": [
        {
          "internalType": "uint256",
          "name": "",
          "type": "uint256"
        }
      ],
      "stateMutability": "view",
      "type": "function"
    },
    {
      "inputs": [
        {
          "internalType": "uint256",
          "name": "",
          "type": "uint256"
        }
      ],
      "name": "tokenCourses",
      "outputs": [
        {
          "internalType": "uint256",
          "name": "",
          "type": "uint256"
        }
      ],
      "stateMutability": "view",
      "type": "function"
    },
    {
      "inputs": [
        {
          "internalType": "address",
          "name": "owner",
          "type": "address"
        },
        {
          "internalType": "uint256",
          "name": "index",
          "type": "uint256"
        }
      ],
      "name": "tokenOfOwnerByIndex",
      "outputs": [
        {
          "internalType": "uint256",
          "name": "",
          "type": "uint256"
        }
      ],
      "stateMutability": "view",
      "type": "function"
    },
    {
      "inputs": [
        {
          "internalType": "uint256",
          "name": "tokenId",
          "type": "uint256"
        }
      ],
      "name": "tokenURI",
      "outputs": [
        {
          "internalType": "string",
          "name": "",
          "type": "string"
        }
      ],
      "stateMutability": "view",
      "type": "function"
    },
    {
      "inputs": [],
      "name": "totalSupply",
      "outputs": [
        {
          "internalType": "uint256",
          "name": "",
          "type": "uint256"
        }
      ],
      "stateMutability": "view",
      "type": "function"
    },
    {
      "inputs": [
        {
          "internalType": "address",
          "name": "from",
          "type": "address"
        },
        {
          "internalType": "address",
          "name": "to",
          "type": "address"
        },
        {
          "internalType": "uint256",
          "name": "tokenId",
          "type": "uint256"
        }
      ],
      "name": "transferFrom",
      "outputs": [],
      "stateMutability": "nonpayable",
      "type": "function"
    },
    {
      "inputs": [
        {
          "internalType": "address",
          "name": "newOwner",
          "type": "address"
        }
      ],
      "name": "transferOwnership",
      "outputs": [],
      "stateMutability": "nonpayable",
      "type": "function"
    },
    {
      "inputs": [],
      "name": "unpause",
      "outputs": [],
      "stateMutability": "nonpayable",
      "type": "function"
    }
  ],
  "bytecode": "0x608060405234801561001057600080fd5b50336040518060400160405280600881526020017f4d696e69204e46540000000000000000000000000000000000000000000000008152506040518060400160405280600481526020017f4d494e4900000000000000000000000000000000000000000000000000000000815250816000908161008d91906104cf565b50806001908161009d91906104cf565b505050600073ffffffffffffffffffffffffffffffffffffffff168173ffffffffffffffffffffffffffffffffffffffff16036101125760006040517f1e4fbdf700000000000000000000000000000000000000000000000000000000815260040161010991906105e2565b60405180910390fd5b610121816101b960201b60201c565b506001600b819055506000600c60006101000a81548160ff021916908315150217905550600073ffffffffffffffffffffffffffffffffffffffff163373ffffffffffffffffffffffffffffffffffffffff16036101b4576040517f08c379a00000000000000000000000000000000000000000000000000000000081526004016101ab9061065a565b60405180910390fd5b61067a565b6000600a60009054906101000a900473ffffffffffffffffffffffffffffffffffffffff16905081600a60006101000a81548173ffffffffffffffffffffffffffffffffffffffff021916908373ffffffffffffffffffffffffffffffffffffffff1602179055508173ffffffffffffffffffffffffffffffffffffffff168173ffffffffffffffffffffffffffffffffffffffff167f8be0079c531659141344cd1fd0a4f28419497f9722a3daafe3b4186f6b6457e060405160405180910390a35050565b600081519050919050565b7f4e487b7100000000000000000000000000000000000000000000000000000000600052604160045260246000fd5b7f4e487b7100000000000000000000000000000000000000000000000000000000600052602260045260246000fd5b6000600282049050600182168061030057607f821691505b602082108103610313576103126102b9565b5b50919050565b60008190508160005260206000209050919050565b60006020601f8301049050919050565b600082821b905092915050565b60006008830261037b7fffffffffffffffffffffffffffffffffffffffffffffffffffffffffffffffff8261033e565b610385868361033e565b95508019841693508086168417925050509392505050565b6000819050919050565b6000819050919050565b60006103cc6103c76103c28461039d565b6103a7565b61039d565b9050919050565b6000819050919050565b6103e6836103b1565b6103fa6103f2826103d3565b84845461034b565b825550505050565b600090565b61040f610402565b61041a8184846103dd565b505050565b5b8181101561043e57610433600082610407565b600181019050610420565b5050565b601f8211156104835761045481610319565b61045d8461032e565b8101602085101561046c578190505b6104806104788561032e565b83018261041f565b50505b505050565b600082821c905092915050565b60006104a660001984600802610488565b1980831691505092915050565b60006104bf8383610495565b9150826002028217905092915050565b6104d88261027f565b67ffffffffffffffff8111156104f1576104f061028a565b5b6104fb82546102e8565b610506828285610442565b600060209050601f8311600181146105395760008415610527578287015190505b61053185826104b3565b865550610599565b601f19841661054786610319565b60005b8281101561056f5784890151825560018201915060208501945060208101905061054a565b8683101561058c5784890151610588601f891682610495565b8355505b6001600288020188555050505b505050505050565b600073ffffffffffffffffffffffffffffffffffffffff82169050919050565b60006105cc826105a1565b9050919050565b6105dc816105c1565b82525050565b60006020820190506105f760008301846105d3565b92915050565b600082825260208201905092915050565b7f496e76616c6964206f776e657220616464726573730000000000000000000000600082015250565b60006106446015836105fd565b915061064f8261060e565b602082019050919050565b6000602082019050818103600083015261067381610637565b9050919050565b613924806106896000396000f3fe608060405234801561001057600080fd5b50600436106101e55760003560e01c806370a082311161010f578063b88d4fde116100a2578063cc6a441811610071578063cc6a4418146105a4578063e7ad0f7f146105d4578063e985e9c514610604578063f2fde38b14610634576101e5565b8063b88d4fde1461050c578063c2c17f5214610528578063c48283ff14610558578063c87b56dd14610574576101e5565b80638da5cb5b116100de5780638da5cb5b1461048457806395d89b41146104a2578063a22cb465146104c0578063b2931096146104dc576101e5565b806370a0823114610424578063715018a6146104545780637681b6181461045e5780638456cb591461047a576101e5565b80632f745c59116101875780634f6ccce7116101565780634f6ccce71461037657806358a2ff1d146103a65780635c975abb146103d65780636352211e146103f4576101e5565b80632f745c59146102f05780633f4ba83a1461032057806340398d671461032a57806342842e0e1461035a576101e5565b8063095ea7b3116101c3578063095ea7b3146102685780631206971c1461028457806318160ddd146102b657806323b872dd146102d4576101e5565b806301ffc9a7146101ea57806306fdde031461021a578063081812fc14610238575b600080fd5b61020460048036038101906101ff9190612855565b610650565b604051610211919061289d565b60405180910390f35b610222610662565b60405161022f9190612948565b60405180910390f35b610252600480360381019061024d91906129a0565b6106f4565b60405161025f9190612a0e565b60405180910390f35b610282600480360381019061027d9190612a55565b610710565b005b61029e600480360381019061029991906129a0565b610726565b6040516102ad93929190612aa4565b60405180910390f35b6102be6107ed565b6040516102cb9190612ae2565b60405180910390f35b6102ee60048036038101906102e99190612afd565b6107fa565b005b61030a60048036038101906103059190612a55565b6108fc565b6040516103179190612ae2565b60405180910390f35b6103286109a5565b005b610344600480360381019061033f9190612b50565b6109b7565b6040516103519190612c3b565b60405180910390f35b610374600480360381019061036f9190612afd565b610a5f565b005b610390600480360381019061038b91906129a0565b610a7f565b60405161039d9190612ae2565b60405180910390f35b6103c060048036038101906103bb91906129a0565b610af5565b6040516103cd9190612ae2565b60405180910390f35b6103de610b0d565b6040516103eb919061289d565b60405180910390f35b61040e600480360381019061040991906129a0565b610b24565b60405161041b9190612a0e565b60405180910390f35b61043e60048036038101906104399190612b50565b610b36565b60405161044b9190612ae2565b60405180910390f35b61045c610bf0565b005b61047860048036038101906104739190612d92565b610c04565b005b610482610cf0565b005b61048c610d02565b6040516104999190612a0e565b60405180910390f35b6104aa610d2c565b6040516104b79190612948565b60405180910390f35b6104da60048036038101906104d59190612e1a565b610dbe565b005b6104f660048036038101906104f19190612a55565b610dd4565b604051610503919061289d565b60405180910390f35b61052660048036038101906105219190612efb565b610e03565b005b610542600480360381019061053d91906129a0565b610e28565b60405161054f9190612948565b60405180910390f35b610572600480360381019061056d9190612f7e565b610ec8565b005b61058e600480360381019061058991906129a0565b6111eb565b60405161059b9190612948565b60405180910390f35b6105be60048036038101906105b99190612a55565b611307565b6040516105cb919061289d565b60405180910390f35b6105ee60048036038101906105e991906129a0565b61136f565b6040516105fb9190612ae2565b60405180910390f35b61061e60048036038101906106199190612fbe565b611387565b60405161062b919061289d565b60405180910390f35b61064e60048036038101906106499190612b50565b61141b565b005b600061065b826114a1565b9050919050565b6060600080546106719061302d565b80601f016020809104026020016040519081016040528092919081815260200182805461069d9061302d565b80156106ea5780601f106106bf576101008083540402835291602001916106ea565b820191906000526020600020905b8154815290600101906020018083116106cd57829003601f168201915b5050505050905090565b60006106ff8261151b565b50610709826115a3565b9050919050565b610722828261071d6115e0565b6115e8565b5050565b6060600080600e600085815260200190815260200160002080546107499061302d565b80601f01602080910402602001604051908101604052809291908181526020018280546107759061302d565b80156107c25780601f10610797576101008083540402835291602001916107c2565b820191906000526020600020905b8154815290600101906020018083116107a557829003601f168201915b5050505050925060116000858152602001908152602001600020549150600083511190509193909250565b6000600880549050905090565b600073ffffffffffffffffffffffffffffffffffffffff168273ffffffffffffffffffffffffffffffffffffffff160361086c5760006040517f64a0ae920000000000000000000000000000000000000000000000000000000081526004016108639190612a0e565b60405180910390fd5b6000610880838361087b6115e0565b6115fa565b90508373ffffffffffffffffffffffffffffffffffffffff168173ffffffffffffffffffffffffffffffffffffffff16146108f6578382826040517f64283d7b0000000000000000000000000000000000000000000000000000000081526004016108ed9392919061305e565b60405180910390fd5b50505050565b600061090783610b36565b821061094c5782826040517fa57d13dc000000000000000000000000000000000000000000000000000000008152600401610943929190613095565b60405180910390fd5b600660008473ffffffffffffffffffffffffffffffffffffffff1673ffffffffffffffffffffffffffffffffffffffff168152602001908152602001600020600083815260200190815260200160002054905092915050565b6109ad611610565b6109b5611697565b565b606060006109c483610b36565b905060008167ffffffffffffffff8111156109e2576109e1612c67565b5b604051908082528060200260200182016040528015610a105781602001602082028036833780820191505090505b50905060005b82811015610a5457610a2885826108fc565b828281518110610a3b57610a3a6130be565b5b6020026020010181815250508080600101915050610a16565b508092505050919050565b610a7a83838360405180602001604052806000815250610e03565b505050565b6000610a896107ed565b8210610acf576000826040517fa57d13dc000000000000000000000000000000000000000000000000000000008152600401610ac6929190613095565b60405180910390fd5b60088281548110610ae357610ae26130be565b5b90600052602060002001549050919050565b60106020528060005260406000206000915090505481565b6000600c60009054906101000a900460ff16905090565b6000610b2f8261151b565b9050919050565b60008073ffffffffffffffffffffffffffffffffffffffff168273ffffffffffffffffffffffffffffffffffffffff1603610ba95760006040517f89c62b64000000000000000000000000000000000000000000000000000000008152600401610ba09190612a0e565b60405180910390fd5b600360008373ffffffffffffffffffffffffffffffffffffffff1673ffffffffffffffffffffffffffffffffffffffff168152602001908152602001600020549050919050565b610bf8611610565b610c0260006116fa565b565b610c0c611610565b6000815111610c50576040517f08c379a0000000000000000000000000000000000000000000000000000000008152600401610c4790613139565b60405180910390fd5b60008211610c93576040517f08c379a0000000000000000000000000000000000000000000000000000000008152600401610c8a906131a5565b60405180910390fd5b80600e60008481526020019081526020016000209081610cb39190613371565b50817f40ff8d4964d645c964b6e8444a699dd820e1386194c064b29e69ec5e33fa049982604051610ce49190612948565b60405180910390a25050565b610cf8611610565b610d006117c0565b565b6000600a60009054906101000a900473ffffffffffffffffffffffffffffffffffffffff16905090565b606060018054610d3b9061302d565b80601f0160208091040260200160405190810160405280929190818152602001828054610d679061302d565b8015610db45780601f10610d8957610100808354040283529160200191610db4565b820191906000526020600020905b815481529060010190602001808311610d9757829003601f168201915b5050505050905090565b610dd0610dc96115e0565b8383611823565b5050565b60126020528160005260406000206020528060005260406000206000915091509054906101000a900460ff1681565b610e0e8484846107fa565b610e22610e196115e0565b85858585611992565b50505050565b600e6020528060005260406000206000915090508054610e479061302d565b80601f0160208091040260200160405190810160405280929190818152602001828054610e739061302d565b8015610ec05780601f10610e9557610100808354040283529160200191610ec0565b820191906000526020600020905b815481529060010190602001808311610ea357829003601f168201915b505050505081565b610ed0611b43565b610ed8611b89565b60648111610f1b576040517f08c379a0000000000000000000000000000000000000000000000000000000008152600401610f129061348f565b60405180910390fd5b6000600e60008481526020019081526020016000208054610f3b9061302d565b905011610f7d576040517f08c379a0000000000000000000000000000000000000000000000000000000008152600401610f74906134fb565b60405180910390fd5b60008211610fc0576040517f08c379a0000000000000000000000000000000000000000000000000000000008152600401610fb7906131a5565b60405180910390fd5b601260003373ffffffffffffffffffffffffffffffffffffffff1673ffffffffffffffffffffffffffffffffffffffff168152602001908152602001600020600083815260200190815260200160002060009054906101000a900460ff161561105e576040517f08c379a00000000000000000000000000000000000000000000000000000000081526004016110559061358d565b60405180910390fd5b6001600d600082825461107191906135dc565b925050819055506000600d5490506110893382611bca565b6000600e60008581526020019081526020016000206040516020016110ae91906136ea565b604051602081830303815290604052905080600f600084815260200190815260200160002090816110df9190613371565b50836010600084815260200190815260200160002081905550600160116000868152602001908152602001600020600082825461111c91906135dc565b925050819055506001601260003373ffffffffffffffffffffffffffffffffffffffff1673ffffffffffffffffffffffffffffffffffffffff168152602001908152602001600020600086815260200190815260200160002060006101000a81548160ff021916908315150217905550833373ffffffffffffffffffffffffffffffffffffffff167f01f8bd07e6c27ff813d5c6d3c4bf0313a1d75043cf978214b504b794075e526684846040516111d592919061370c565b60405180910390a350506111e7611be8565b5050565b6060600073ffffffffffffffffffffffffffffffffffffffff1661120e83611bf2565b73ffffffffffffffffffffffffffffffffffffffff1603611264576040517f08c379a000000000000000000000000000000000000000000000000000000000815260040161125b90613788565b60405180910390fd5b600f600083815260200190815260200160002080546112829061302d565b80601f01602080910402602001604051908101604052809291908181526020018280546112ae9061302d565b80156112fb5780601f106112d0576101008083540402835291602001916112fb565b820191906000526020600020905b8154815290600101906020018083116112de57829003601f168201915b50505050509050919050565b6000601260008473ffffffffffffffffffffffffffffffffffffffff1673ffffffffffffffffffffffffffffffffffffffff168152602001908152602001600020600083815260200190815260200160002060009054906101000a900460ff16905092915050565b60116020528060005260406000206000915090505481565b6000600560008473ffffffffffffffffffffffffffffffffffffffff1673ffffffffffffffffffffffffffffffffffffffff16815260200190815260200160002060008373ffffffffffffffffffffffffffffffffffffffff1673ffffffffffffffffffffffffffffffffffffffff16815260200190815260200160002060009054906101000a900460ff16905092915050565b611423611610565b600073ffffffffffffffffffffffffffffffffffffffff168173ffffffffffffffffffffffffffffffffffffffff16036114955760006040517f1e4fbdf700000000000000000000000000000000000000000000000000000000815260040161148c9190612a0e565b60405180910390fd5b61149e816116fa565b50565b60007f780e9d63000000000000000000000000000000000000000000000000000000007bffffffffffffffffffffffffffffffffffffffffffffffffffffffff1916827bffffffffffffffffffffffffffffffffffffffffffffffffffffffff19161480611514575061151382611c2f565b5b9050919050565b60008061152783611bf2565b9050600073ffffffffffffffffffffffffffffffffffffffff168173ffffffffffffffffffffffffffffffffffffffff160361159a57826040517f7e2732890000000000000000000000000000000000000000000000000000000081526004016115919190612ae2565b60405180910390fd5b80915050919050565b60006004600083815260200190815260200160002060009054906101000a900473ffffffffffffffffffffffffffffffffffffffff169050919050565b600033905090565b6115f58383836001611d11565b505050565b6000611607848484611ed6565b90509392505050565b6116186115e0565b73ffffffffffffffffffffffffffffffffffffffff16611636610d02565b73ffffffffffffffffffffffffffffffffffffffff1614611695576116596115e0565b6040517f118cdaa700000000000000000000000000000000000000000000000000000000815260040161168c9190612a0e565b60405180910390fd5b565b61169f611ff3565b6000600c60006101000a81548160ff0219169083151502179055507f5db9ee0a495bf2e6ff9c91a7834c1ba4fdd244a5e8aa4e537bd38aeae4b073aa6116e36115e0565b6040516116f09190612a0e565b60405180910390a1565b6000600a60009054906101000a900473ffffffffffffffffffffffffffffffffffffffff16905081600a60006101000a81548173ffffffffffffffffffffffffffffffffffffffff021916908373ffffffffffffffffffffffffffffffffffffffff1602179055508173ffffffffffffffffffffffffffffffffffffffff168173ffffffffffffffffffffffffffffffffffffffff167f8be0079c531659141344cd1fd0a4f28419497f9722a3daafe3b4186f6b6457e060405160405180910390a35050565b6117c8611b89565b6001600c60006101000a81548160ff0219169083151502179055507f62e78cea01bee320cd4e420270b5ea74000d11b0c9f74754ebdbfc544b05a25861180c6115e0565b6040516118199190612a0e565b60405180910390a1565b600073ffffffffffffffffffffffffffffffffffffffff168273ffffffffffffffffffffffffffffffffffffffff160361189457816040517f5b08ba1800000000000000000000000000000000000000000000000000000000815260040161188b9190612a0e565b60405180910390fd5b80600560008573ffffffffffffffffffffffffffffffffffffffff1673ffffffffffffffffffffffffffffffffffffffff16815260200190815260200160002060008473ffffffffffffffffffffffffffffffffffffffff1673ffffffffffffffffffffffffffffffffffffffff16815260200190815260200160002060006101000a81548160ff0219169083151502179055508173ffffffffffffffffffffffffffffffffffffffff168373ffffffffffffffffffffffffffffffffffffffff167f17307eab39ab6107e8899845ad3d59bd9653f200f220920489ca2b5937696c3183604051611985919061289d565b60405180910390a3505050565b60008373ffffffffffffffffffffffffffffffffffffffff163b1115611b3c578273ffffffffffffffffffffffffffffffffffffffff1663150b7a02868685856040518563ffffffff1660e01b81526004016119f194939291906137fd565b6020604051808303816000875af1925050508015611a2d57506040513d601f19601f82011682018060405250810190611a2a919061385e565b60015b611ab1573d8060008114611a5d576040519150601f19603f3d011682016040523d82523d6000602084013e611a62565b606091505b506000815103611aa957836040517f64a0ae92000000000000000000000000000000000000000000000000000000008152600401611aa09190612a0e565b60405180910390fd5b805181602001fd5b63150b7a0260e01b7bffffffffffffffffffffffffffffffffffffffffffffffffffffffff1916817bffffffffffffffffffffffffffffffffffffffffffffffffffffffff191614611b3a57836040517f64a0ae92000000000000000000000000000000000000000000000000000000008152600401611b319190612a0e565b60405180910390fd5b505b5050505050565b6002600b5403611b7f576040517f3ee5aeb500000000000000000000000000000000000000000000000000000000815260040160405180910390fd5b6002600b81905550565b611b91610b0d565b15611bc8576040517fd93c066500000000000000000000000000000000000000000000000000000000815260040160405180910390fd5b565b611be4828260405180602001604052806000815250612033565b5050565b6001600b81905550565b60006002600083815260200190815260200160002060009054906101000a900473ffffffffffffffffffffffffffffffffffffffff169050919050565b60007f80ac58cd000000000000000000000000000000000000000000000000000000007bffffffffffffffffffffffffffffffffffffffffffffffffffffffff1916827bffffffffffffffffffffffffffffffffffffffffffffffffffffffff19161480611cfa57507f5b5e139f000000000000000000000000000000000000000000000000000000007bffffffffffffffffffffffffffffffffffffffffffffffffffffffff1916827bffffffffffffffffffffffffffffffffffffffffffffffffffffffff1916145b80611d0a5750611d0982612057565b5b9050919050565b8080611d4a5750600073ffffffffffffffffffffffffffffffffffffffff168273ffffffffffffffffffffffffffffffffffffffff1614155b15611e7e576000611d5a8461151b565b9050600073ffffffffffffffffffffffffffffffffffffffff168373ffffffffffffffffffffffffffffffffffffffff1614158015611dc557508273ffffffffffffffffffffffffffffffffffffffff168173ffffffffffffffffffffffffffffffffffffffff1614155b8015611dd85750611dd68184611387565b155b15611e1a57826040517fa9fbf51f000000000000000000000000000000000000000000000000000000008152600401611e119190612a0e565b60405180910390fd5b8115611e7c57838573ffffffffffffffffffffffffffffffffffffffff168273ffffffffffffffffffffffffffffffffffffffff167f8c5be1e5ebec7d5bd14f71427d1e84f3dd0314c0f7b2291e5b200ac8c7c3b92560405160405180910390a45b505b836004600085815260200190815260200160002060006101000a81548173ffffffffffffffffffffffffffffffffffffffff021916908373ffffffffffffffffffffffffffffffffffffffff16021790555050505050565b600080611ee48585856120c1565b9050600073ffffffffffffffffffffffffffffffffffffffff168173ffffffffffffffffffffffffffffffffffffffff1603611f2857611f23846122db565b611f67565b8473ffffffffffffffffffffffffffffffffffffffff168173ffffffffffffffffffffffffffffffffffffffff1614611f6657611f658185612324565b5b5b600073ffffffffffffffffffffffffffffffffffffffff168573ffffffffffffffffffffffffffffffffffffffff1603611fa957611fa48461240f565b611fe8565b8473ffffffffffffffffffffffffffffffffffffffff168173ffffffffffffffffffffffffffffffffffffffff1614611fe757611fe685856124e0565b5b5b809150509392505050565b611ffb610b0d565b612031576040517f8dfc202b00000000000000000000000000000000000000000000000000000000815260040160405180910390fd5b565b61203d838361256b565b6120526120486115e0565b6000858585611992565b505050565b60007f01ffc9a7000000000000000000000000000000000000000000000000000000007bffffffffffffffffffffffffffffffffffffffffffffffffffffffff1916827bffffffffffffffffffffffffffffffffffffffffffffffffffffffff1916149050919050565b6000806120cd84611bf2565b9050600073ffffffffffffffffffffffffffffffffffffffff168373ffffffffffffffffffffffffffffffffffffffff161461210f5761210e818486612664565b5b600073ffffffffffffffffffffffffffffffffffffffff168173ffffffffffffffffffffffffffffffffffffffff16146121a057612151600085600080611d11565b6001600360008373ffffffffffffffffffffffffffffffffffffffff1673ffffffffffffffffffffffffffffffffffffffff168152602001908152602001600020600082825403925050819055505b600073ffffffffffffffffffffffffffffffffffffffff168573ffffffffffffffffffffffffffffffffffffffff1614612223576001600360008773ffffffffffffffffffffffffffffffffffffffff1673ffffffffffffffffffffffffffffffffffffffff168152602001908152602001600020600082825401925050819055505b846002600086815260200190815260200160002060006101000a81548173ffffffffffffffffffffffffffffffffffffffff021916908373ffffffffffffffffffffffffffffffffffffffff160217905550838573ffffffffffffffffffffffffffffffffffffffff168273ffffffffffffffffffffffffffffffffffffffff167fddf252ad1be2c89b69c2b068fc378daa952ba7f163c4a11628f55a4df523b3ef60405160405180910390a4809150509392505050565b6008805490506009600083815260200190815260200160002081905550600881908060018154018082558091505060019003906000526020600020016000909190919091505550565b600061232f83610b36565b90506000600760008481526020019081526020016000205490506000600660008673ffffffffffffffffffffffffffffffffffffffff1673ffffffffffffffffffffffffffffffffffffffff16815260200190815260200160002090508282146123db5760008160008581526020019081526020016000205490508082600085815260200190815260200160002081905550826007600083815260200190815260200160002081905550505b6007600085815260200190815260200160002060009055806000848152602001908152602001600020600090555050505050565b60006001600880549050612423919061388b565b9050600060096000848152602001908152602001600020549050600060088381548110612453576124526130be565b5b906000526020600020015490508060088381548110612475576124746130be565b5b9060005260206000200181905550816009600083815260200190815260200160002081905550600960008581526020019081526020016000206000905560088054806124c4576124c36138bf565b5b6001900381819060005260206000200160009055905550505050565b600060016124ed84610b36565b6124f7919061388b565b905081600660008573ffffffffffffffffffffffffffffffffffffffff1673ffffffffffffffffffffffffffffffffffffffff168152602001908152602001600020600083815260200190815260200160002081905550806007600084815260200190815260200160002081905550505050565b600073ffffffffffffffffffffffffffffffffffffffff168273ffffffffffffffffffffffffffffffffffffffff16036125dd5760006040517f64a0ae920000000000000000000000000000000000000000000000000000000081526004016125d49190612a0e565b60405180910390fd5b60006125eb838360006115fa565b9050600073ffffffffffffffffffffffffffffffffffffffff168173ffffffffffffffffffffffffffffffffffffffff161461265f5760006040517f73c6ac6e0000000000000000000000000000000000000000000000000000000081526004016126569190612a0e565b60405180910390fd5b505050565b61266f838383612728565b61272357600073ffffffffffffffffffffffffffffffffffffffff168373ffffffffffffffffffffffffffffffffffffffff16036126e457806040517f7e2732890000000000000000000000000000000000000000000000000000000081526004016126db9190612ae2565b60405180910390fd5b81816040517f177e802f00000000000000000000000000000000000000000000000000000000815260040161271a929190613095565b60405180910390fd5b505050565b60008073ffffffffffffffffffffffffffffffffffffffff168373ffffffffffffffffffffffffffffffffffffffff16141580156127e057508273ffffffffffffffffffffffffffffffffffffffff168473ffffffffffffffffffffffffffffffffffffffff1614806127a157506127a08484611387565b5b806127df57508273ffffffffffffffffffffffffffffffffffffffff166127c7836115a3565b73ffffffffffffffffffffffffffffffffffffffff16145b5b90509392505050565b6000604051905090565b600080fd5b600080fd5b60007fffffffff0000000000000000000000000000000000000000000000000000000082169050919050565b612832816127fd565b811461283d57600080fd5b50565b60008135905061284f81612829565b92915050565b60006020828403121561286b5761286a6127f3565b5b600061287984828501612840565b91505092915050565b60008115159050919050565b61289781612882565b82525050565b60006020820190506128b2600083018461288e565b92915050565b600081519050919050565b600082825260208201905092915050565b60005b838110156128f25780820151818401526020810190506128d7565b60008484015250505050565b6000601f19601f8301169050919050565b600061291a826128b8565b61292481856128c3565b93506129348185602086016128d4565b61293d816128fe565b840191505092915050565b60006020820190508181036000830152612962818461290f565b905092915050565b6000819050919050565b61297d8161296a565b811461298857600080fd5b50565b60008135905061299a81612974565b92915050565b6000602082840312156129b6576129b56127f3565b5b60006129c48482850161298b565b91505092915050565b600073ffffffffffffffffffffffffffffffffffffffff82169050919050565b60006129f8826129cd565b9050919050565b612a08816129ed565b82525050565b6000602082019050612a2360008301846129ff565b92915050565b612a32816129ed565b8114612a3d57600080fd5b50565b600081359050612a4f81612a29565b92915050565b60008060408385031215612a6c57612a6b6127f3565b5b6000612a7a85828601612a40565b9250506020612a8b8582860161298b565b9150509250929050565b612a9e8161296a565b82525050565b60006060820190508181036000830152612abe818661290f565b9050612acd6020830185612a95565b612ada604083018461288e565b949350505050565b6000602082019050612af76000830184612a95565b92915050565b600080600060608486031215612b1657612b156127f3565b5b6000612b2486828701612a40565b9350506020612b3586828701612a40565b9250506040612b468682870161298b565b9150509250925092565b600060208284031215612b6657612b656127f3565b5b6000612b7484828501612a40565b91505092915050565b600081519050919050565b600082825260208201905092915050565b6000819050602082019050919050565b612bb28161296a565b82525050565b6000612bc48383612ba9565b60208301905092915050565b6000602082019050919050565b6000612be882612b7d565b612bf28185612b88565b9350612bfd83612b99565b8060005b83811015612c2e578151612c158882612bb8565b9750612c2083612bd0565b925050600181019050612c01565b5085935050505092915050565b60006020820190508181036000830152612c558184612bdd565b905092915050565b600080fd5b600080fd5b7f4e487b7100000000000000000000000000000000000000000000000000000000600052604160045260246000fd5b612c9f826128fe565b810181811067ffffffffffffffff82111715612cbe57612cbd612c67565b5b80604052505050565b6000612cd16127e9565b9050612cdd8282612c96565b919050565b600067ffffffffffffffff821115612cfd57612cfc612c67565b5b612d06826128fe565b9050602081019050919050565b82818337600083830152505050565b6000612d35612d3084612ce2565b612cc7565b905082815260208101848484011115612d5157612d50612c62565b5b612d5c848285612d13565b509392505050565b600082601f830112612d7957612d78612c5d565b5b8135612d89848260208601612d22565b91505092915050565b60008060408385031215612da957612da86127f3565b5b6000612db78582860161298b565b925050602083013567ffffffffffffffff811115612dd857612dd76127f8565b5b612de485828601612d64565b9150509250929050565b612df781612882565b8114612e0257600080fd5b50565b600081359050612e1481612dee565b92915050565b60008060408385031215612e3157612e306127f3565b5b6000612e3f85828601612a40565b9250506020612e5085828601612e05565b9150509250929050565b600067ffffffffffffffff821115612e7557612e74612c67565b5b612e7e826128fe565b9050602081019050919050565b6000612e9e612e9984612e5a565b612cc7565b905082815260208101848484011115612eba57612eb9612c62565b5b612ec5848285612d13565b509392505050565b600082601f830112612ee257612ee1612c5d565b5b8135612ef2848260208601612e8b565b91505092915050565b60008060008060808587031215612f1557612f146127f3565b5b6000612f2387828801612a40565b9450506020612f3487828801612a40565b9350506040612f458782880161298b565b925050606085013567ffffffffffffffff811115612f6657612f656127f8565b5b612f7287828801612ecd565b91505092959194509250565b60008060408385031215612f9557612f946127f3565b5b6000612fa38582860161298b565b9250506020612fb48582860161298b565b9150509250929050565b60008060408385031215612fd557612fd46127f3565b5b6000612fe385828601612a40565b9250506020612ff485828601612a40565b9150509250929050565b7f4e487b7100000000000000000000000000000000000000000000000000000000600052602260045260246000fd5b6000600282049050600182168061304557607f821691505b60208210810361305857613057612ffe565b5b50919050565b600060608201905061307360008301866129ff565b6130806020830185612a95565b61308d60408301846129ff565b949350505050565b60006040820190506130aa60008301856129ff565b6130b76020830184612a95565b9392505050565b7f4e487b7100000000000000000000000000000000000000000000000000000000600052603260045260246000fd5b7f4349442063616e6e6f7420626520656d70747900000000000000000000000000600082015250565b60006131236013836128c3565b915061312e826130ed565b602082019050919050565b6000602082019050818103600083015261315281613116565b9050919050565b7f496e76616c696420636f75727365204944000000000000000000000000000000600082015250565b600061318f6011836128c3565b915061319a82613159565b602082019050919050565b600060208201905081810360008301526131be81613182565b9050919050565b60008190508160005260206000209050919050565b60006020601f8301049050919050565b600082821b905092915050565b6000600883026132277fffffffffffffffffffffffffffffffffffffffffffffffffffffffffffffffff826131ea565b61323186836131ea565b95508019841693508086168417925050509392505050565b6000819050919050565b600061326e6132696132648461296a565b613249565b61296a565b9050919050565b6000819050919050565b61328883613253565b61329c61329482613275565b8484546131f7565b825550505050565b600090565b6132b16132a4565b6132bc81848461327f565b505050565b5b818110156132e0576132d56000826132a9565b6001810190506132c2565b5050565b601f821115613325576132f6816131c5565b6132ff846131da565b8101602085101561330e578190505b61332261331a856131da565b8301826132c1565b50505b505050565b600082821c905092915050565b60006133486000198460080261332a565b1980831691505092915050565b60006133618383613337565b9150826002028217905092915050565b61337a826128b8565b67ffffffffffffffff81111561339357613392612c67565b5b61339d825461302d565b6133a88282856132e4565b600060209050601f8311600181146133db57600084156133c9578287015190505b6133d38582613355565b86555061343b565b601f1984166133e9866131c5565b60005b82811015613411578489015182556001820191506020850194506020810190506133ec565b8683101561342e578489015161342a601f891682613337565b8355505b6001600288020188555050505b505050505050565b7f56616c7565206d7573742062652067726561746572207468616e203130300000600082015250565b6000613479601e836128c3565b915061348482613443565b602082019050919050565b600060208201905081810360008301526134a88161346c565b9050919050565b7f436f7572736520434944206e6f74207365740000000000000000000000000000600082015250565b60006134e56012836128c3565b91506134f0826134af565b602082019050919050565b60006020820190508181036000830152613514816134d8565b9050919050565b7f416c726561647920636c61696d6564204e465420666f72207468697320636f7560008201527f7273650000000000000000000000000000000000000000000000000000000000602082015250565b60006135776023836128c3565b91506135828261351b565b604082019050919050565b600060208201905081810360008301526135a68161356a565b9050919050565b7f4e487b7100000000000000000000000000000000000000000000000000000000600052601160045260246000fd5b60006135e78261296a565b91506135f28361296a565b925082820190508082111561360a576136096135ad565b5b92915050565b600081905092915050565b7f697066733a2f2f00000000000000000000000000000000000000000000000000600082015250565b6000613651600783613610565b915061365c8261361b565b600782019050919050565b600081546136748161302d565b61367e8186613610565b9450600182166000811461369957600181146136ae576136e1565b60ff19831686528115158202860193506136e1565b6136b7856131c5565b60005b838110156136d9578154818901526001820191506020810190506136ba565b838801955050505b50505092915050565b60006136f582613644565b91506137018284613667565b915081905092915050565b60006040820190506137216000830185612a95565b8181036020830152613733818461290f565b90509392505050565b7f4552433732313a20696e76616c696420746f6b656e2049440000000000000000600082015250565b60006137726018836128c3565b915061377d8261373c565b602082019050919050565b600060208201905081810360008301526137a181613765565b9050919050565b600081519050919050565b600082825260208201905092915050565b60006137cf826137a8565b6137d981856137b3565b93506137e98185602086016128d4565b6137f2816128fe565b840191505092915050565b600060808201905061381260008301876129ff565b61381f60208301866129ff565b61382c6040830185612a95565b818103606083015261383e81846137c4565b905095945050505050565b60008151905061385881612829565b92915050565b600060208284031215613874576138736127f3565b5b600061388284828501613849565b91505092915050565b60006138968261296a565b91506138a18361296a565b92508282039050818111156138b9576138b86135ad565b5b92915050565b7f4e487b7100000000000000000000000000000000000000000000000000000000600052603160045260246000fdfea26469706673582212207c6aa707766206446ca2764561952a0a891994514d22de196db1a497f4b2af8964736f6c634300081c0033",
  "linkReferences": {},
  "deployedLinkReferences": {}
}