{
  "_format": "hh-sol-artifact-1",
  "contractName": "XHTCourse",
  "sourceName": "contracts/xhtCourse.sol",
  "abi": [
    {
      "inputs": [
        {
          "internalType": "address",
          "name": "_xhtToken",
          "type": "address"
        }
      ],
      "stateMutability": "nonpayable",
      "type": "constructor"
    },
    {
      "inputs": [
        {
          "internalType": "uint256",
          "name": "courseId",
          "type": "uint256"
        },
        {
          "internalType": "address",
          "name": "buyer",
          "type": "address"
        }
      ],
      "name": "CourseAlreadyPurchased",
      "type": "error"
    },
    {
      "inputs": [
        {
          "internalType": "uint256",
          "name": "courseId",
          "type": "uint256"
        },
        {
          "internalType": "string",
          "name": "name",
          "type": "string"
        }
      ],
      "name": "CourseNotActive",
      "type": "error"
    },
    {
      "inputs": [
        {
          "internalType": "uint256",
          "name": "required",
          "type": "uint256"
        },
        {
          "internalType": "uint256",
          "name": "actual",
          "type": "uint256"
        }
      ],
      "name": "InsufficientAllowance",
      "type": "error"
    },
    {
      "inputs": [
        {
          "internalType": "address",
          "name": "account",
          "type": "address"
        },
        {
          "internalType": "uint256",
          "name": "coursePrice",
          "type": "uint256"
        },
        {
          "internalType": "uint256",
          "name": "actualBalance",
          "type": "uint256"
        }
      ],
      "name": "InsufficientBalance",
      "type": "error"
    },
    {
      "inputs": [
        {
          "internalType": "uint256",
          "name": "courseId",
          "type": "uint256"
        },
        {
          "internalType": "uint256",
          "name": "maxCourseId",
          "type": "uint256"
        }
      ],
      "name": "InvalidCourseId",
      "type": "error"
    },
    {
      "inputs": [
        {
          "internalType": "string",
          "name": "name",
          "type": "string"
        }
      ],
      "name": "InvalidName",
      "type": "error"
    },
    {
      "inputs": [
        {
          "internalType": "uint256",
          "name": "price",
          "type": "uint256"
        }
      ],
      "name": "InvalidPrice",
      "type": "error"
    },
    {
      "inputs": [
        {
          "internalType": "address",
          "name": "owner",
          "type": "address"
        }
      ],
      "name": "OwnableInvalidOwner",
      "type": "error"
    },
    {
      "inputs": [
        {
          "internalType": "address",
          "name": "account",
          "type": "address"
        }
      ],
      "name": "OwnableUnauthorizedAccount",
      "type": "error"
    },
    {
      "inputs": [
        {
          "internalType": "address",
          "name": "from",
          "type": "address"
        },
        {
          "internalType": "address",
          "name": "to",
          "type": "address"
        },
        {
          "internalType": "uint256",
          "name": "amount",
          "type": "uint256"
        }
      ],
      "name": "TokenTransferFailed",
      "type": "error"
    },
    {
      "inputs": [
        {
          "internalType": "address",
          "name": "caller",
          "type": "address"
        },
        {
          "internalType": "address",
          "name": "owner",
          "type": "address"
        }
      ],
      "name": "UnauthorizedAccess",
      "type": "error"
    },
    {
      "anonymous": false,
      "inputs": [
        {
          "indexed": true,
          "internalType": "uint256",
          "name": "courseId",
          "type": "uint256"
        },
        {
          "indexed": false,
          "internalType": "string",
          "name": "name",
          "type": "string"
        },
        {
          "indexed": false,
          "internalType": "uint256",
          "name": "price",
          "type": "uint256"
        }
      ],
      "name": "CourseCreated",
      "type": "event"
    },
    {
      "anonymous": false,
      "inputs": [
        {
          "indexed": true,
          "internalType": "address",
          "name": "buyer",
          "type": "address"
        },
        {
          "indexed": true,
          "internalType": "uint256",
          "name": "courseId",
          "type": "uint256"
        },
        {
          "indexed": false,
          "internalType": "uint256",
          "name": "price",
          "type": "uint256"
        }
      ],
      "name": "CoursePurchased",
      "type": "event"
    },
    {
      "anonymous": false,
      "inputs": [
        {
          "indexed": true,
          "internalType": "uint256",
          "name": "courseId",
          "type": "uint256"
        },
        {
          "indexed": false,
          "internalType": "string",
          "name": "name",
          "type": "string"
        },
        {
          "indexed": false,
          "internalType": "uint256",
          "name": "price",
          "type": "uint256"
        },
        {
          "indexed": false,
          "internalType": "bool",
          "name": "isActive",
          "type": "bool"
        }
      ],
      "name": "CourseUpdated",
      "type": "event"
    },
    {
      "anonymous": false,
      "inputs": [
        {
          "indexed": true,
          "internalType": "address",
          "name": "previousOwner",
          "type": "address"
        },
        {
          "indexed": true,
          "internalType": "address",
          "name": "newOwner",
          "type": "address"
        }
      ],
      "name": "OwnershipTransferred",
      "type": "event"
    },
    {
      "inputs": [
        {
          "internalType": "string",
          "name": "name",
          "type": "string"
        },
        {
          "internalType": "uint256",
          "name": "price",
          "type": "uint256"
        },
        {
          "internalType": "string",
          "name": "description",
          "type": "string"
        }
      ],
      "name": "addCourse",
      "outputs": [],
      "stateMutability": "nonpayable",
      "type": "function"
    },
    {
      "inputs": [],
      "name": "courseCount",
      "outputs": [
        {
          "internalType": "uint256",
          "name": "",
          "type": "uint256"
        }
      ],
      "stateMutability": "view",
      "type": "function"
    },
    {
      "inputs": [
        {
          "internalType": "uint256",
          "name": "",
          "type": "uint256"
        }
      ],
      "name": "courses",
      "outputs": [
        {
          "internalType": "string",
          "name": "name",
          "type": "string"
        },
        {
          "internalType": "uint256",
          "name": "price",
          "type": "uint256"
        },
        {
          "internalType": "bool",
          "name": "isActive",
          "type": "bool"
        },
        {
          "internalType": "string",
          "name": "description",
          "type": "string"
        }
      ],
      "stateMutability": "view",
      "type": "function"
    },
    {
      "inputs": [
        {
          "internalType": "uint256",
          "name": "courseId",
          "type": "uint256"
        }
      ],
      "name": "getCourse",
      "outputs": [
        {
          "components": [
            {
              "internalType": "string",
              "name": "name",
              "type": "string"
            },
            {
              "internalType": "uint256",
              "name": "price",
              "type": "uint256"
            },
            {
              "internalType": "bool",
              "name": "isActive",
              "type": "bool"
            },
            {
              "internalType": "string",
              "name": "description",
              "type": "string"
            }
          ],
          "internalType": "struct XHTCourse.Course",
          "name": "",
          "type": "tuple"
        }
      ],
      "stateMutability": "view",
      "type": "function"
    },
    {
      "inputs": [
        {
          "internalType": "address",
          "name": "user",
          "type": "address"
        }
      ],
      "name": "getUserPurchases",
      "outputs": [
        {
          "components": [
            {
              "internalType": "uint256",
              "name": "courseId",
              "type": "uint256"
            },
            {
              "internalType": "uint256",
              "name": "timestamp",
              "type": "uint256"
            },
            {
              "internalType": "uint256",
              "name": "price",
              "type": "uint256"
            }
          ],
          "internalType": "struct XHTCourse.Purchase[]",
          "name": "",
          "type": "tuple[]"
        }
      ],
      "stateMutability": "view",
      "type": "function"
    },
    {
      "inputs": [],
      "name": "owner",
      "outputs": [
        {
          "internalType": "address",
          "name": "",
          "type": "address"
        }
      ],
      "stateMutability": "view",
      "type": "function"
    },
    {
      "inputs": [
        {
          "internalType": "uint256",
          "name": "courseId",
          "type": "uint256"
        }
      ],
      "name": "purchaseCourse",
      "outputs": [],
      "stateMutability": "nonpayable",
      "type": "function"
    },
    {
      "inputs": [],
      "name": "renounceOwnership",
      "outputs": [],
      "stateMutability": "nonpayable",
      "type": "function"
    },
    {
      "inputs": [
        {
          "internalType": "address",
          "name": "newOwner",
          "type": "address"
        }
      ],
      "name": "transferOwnership",
      "outputs": [],
      "stateMutability": "nonpayable",
      "type": "function"
    },
    {
      "inputs": [
        {
          "internalType": "uint256",
          "name": "courseId",
          "type": "uint256"
        },
        {
          "internalType": "string",
          "name": "name",
          "type": "string"
        },
        {
          "internalType": "uint256",
          "name": "price",
          "type": "uint256"
        },
        {
          "internalType": "bool",
          "name": "isActive",
          "type": "bool"
        },
        {
          "internalType": "string",
          "name": "description",
          "type": "string"
        }
      ],
      "name": "updateCourse",
      "outputs": [],
      "stateMutability": "nonpayable",
      "type": "function"
    },
    {
      "inputs": [
        {
          "internalType": "address",
          "name": "",
          "type": "address"
        },
        {
          "internalType": "uint256",
          "name": "",
          "type": "uint256"
        }
      ],
      "name": "userPurchases",
      "outputs": [
        {
          "internalType": "uint256",
          "name": "courseId",
          "type": "uint256"
        },
        {
          "internalType": "uint256",
          "name": "timestamp",
          "type": "uint256"
        },
        {
          "internalType": "uint256",
          "name": "price",
          "type": "uint256"
        }
      ],
      "stateMutability": "view",
      "type": "function"
    },
    {
      "inputs": [
        {
          "internalType": "uint256",
          "name": "amount",
          "type": "uint256"
        }
      ],
      "name": "withdrawXHT",
      "outputs": [],
      "stateMutability": "nonpayable",
      "type": "function"
    },
    {
      "inputs": [],
      "name": "xhtToken",
      "outputs": [
        {
          "internalType": "contract IERC20",
          "name": "",
          "type": "address"
        }
      ],
      "stateMutability": "view",
      "type": "function"
    }
  ],
  "bytecode": "0x608060405234801561001057600080fd5b506040516125d73803806125d783398181016040528101906100329190610223565b33600073ffffffffffffffffffffffffffffffffffffffff168173ffffffffffffffffffffffffffffffffffffffff16036100a55760006040517f1e4fbdf700000000000000000000000000000000000000000000000000000000815260040161009c919061025f565b60405180910390fd5b6100b4816100fc60201b60201c565b5080600160006101000a81548173ffffffffffffffffffffffffffffffffffffffff021916908373ffffffffffffffffffffffffffffffffffffffff1602179055505061027a565b60008060009054906101000a900473ffffffffffffffffffffffffffffffffffffffff169050816000806101000a81548173ffffffffffffffffffffffffffffffffffffffff021916908373ffffffffffffffffffffffffffffffffffffffff1602179055508173ffffffffffffffffffffffffffffffffffffffff168173ffffffffffffffffffffffffffffffffffffffff167f8be0079c531659141344cd1fd0a4f28419497f9722a3daafe3b4186f6b6457e060405160405180910390a35050565b600080fd5b600073ffffffffffffffffffffffffffffffffffffffff82169050919050565b60006101f0826101c5565b9050919050565b610200816101e5565b811461020b57600080fd5b50565b60008151905061021d816101f7565b92915050565b600060208284031215610239576102386101c0565b5b60006102478482850161020e565b91505092915050565b610259816101e5565b82525050565b60006020820190506102746000830184610250565b92915050565b61234e806102896000396000f3fe608060405234801561001057600080fd5b50600436106100cf5760003560e01c806396f979d21161008c578063cf2c033411610066578063cf2c033414610201578063ef12c96114610233578063f2fde38b14610251578063f54827e81461026d576100cf565b806396f979d214610182578063c6e5d8f6146101b5578063cd131938146101e5576100cf565b80630b91e28d146100d457806366055159146101045780636bbab86b146101225780636d7d30021461013e578063715018a61461015a5780638da5cb5b14610164575b600080fd5b6100ee60048036038101906100e99190611523565b610289565b6040516100fb9190611674565b60405180910390f35b61010c610455565b60405161011991906116a5565b60405180910390f35b61013c60048036038101906101379190611523565b61045b565b005b610158600480360381019061015391906117f5565b6106c1565b005b6101626108b7565b005b61016c6108cb565b60405161017991906118c1565b60405180910390f35b61019c60048036038101906101979190611523565b6108f4565b6040516101ac9493929190611935565b60405180910390f35b6101cf60048036038101906101ca91906119b4565b610a41565b6040516101dc9190611ad2565b60405180910390f35b6101ff60048036038101906101fa9190611523565b610afd565b005b61021b60048036038101906102169190611af4565b611064565b60405161022a93929190611b34565b60405180910390f35b61023b6110ab565b6040516102489190611bca565b60405180910390f35b61026b600480360381019061026691906119b4565b6110d1565b005b61028760048036038101906102829190611c11565b611157565b005b6102916114af565b60008214806102a1575060045482115b156102e757816004546040517fe777fb710000000000000000000000000000000000000000000000000000000081526004016102de929190611cc4565b60405180910390fd5b6002600083815260200190815260200160002060405180608001604052908160008201805461031590611d1c565b80601f016020809104026020016040519081016040528092919081815260200182805461034190611d1c565b801561038e5780601f106103635761010080835404028352916020019161038e565b820191906000526020600020905b81548152906001019060200180831161037157829003601f168201915b50505050508152602001600182015481526020016002820160009054906101000a900460ff161515151581526020016003820180546103cc90611d1c565b80601f01602080910402602001604051908101604052809291908181526020018280546103f890611d1c565b80156104455780601f1061041a57610100808354040283529160200191610445565b820191906000526020600020905b81548152906001019060200180831161042857829003601f168201915b5050505050815250509050919050565b60045481565b6104636108cb565b73ffffffffffffffffffffffffffffffffffffffff163373ffffffffffffffffffffffffffffffffffffffff16146104db573361049e6108cb565b6040517f4116c50f0000000000000000000000000000000000000000000000000000000081526004016104d2929190611d4d565b60405180910390fd5b6000600160009054906101000a900473ffffffffffffffffffffffffffffffffffffffff1673ffffffffffffffffffffffffffffffffffffffff166370a08231306040518263ffffffff1660e01b815260040161053891906118c1565b602060405180830381865afa158015610555573d6000803e3d6000fd5b505050506040513d601f19601f820116820180604052508101906105799190611d8b565b9050818110156105c4573082826040517fdb42144d0000000000000000000000000000000000000000000000000000000081526004016105bb93929190611db8565b60405180910390fd5b6000600160009054906101000a900473ffffffffffffffffffffffffffffffffffffffff1673ffffffffffffffffffffffffffffffffffffffff1663a9059cbb61060c6108cb565b856040518363ffffffff1660e01b815260040161062a929190611def565b6020604051808303816000875af1158015610649573d6000803e3d6000fd5b505050506040513d601f19601f8201168201806040525081019061066d9190611e2d565b9050806106bc573061067d6108cb565b846040517fc87767980000000000000000000000000000000000000000000000000000000081526004016106b393929190611e5a565b60405180910390fd5b505050565b6106c96108cb565b73ffffffffffffffffffffffffffffffffffffffff163373ffffffffffffffffffffffffffffffffffffffff161461074157336107046108cb565b6040517f4116c50f000000000000000000000000000000000000000000000000000000008152600401610738929190611d4d565b60405180910390fd5b600083510361078757826040517f7f19f48d00000000000000000000000000000000000000000000000000000000815260040161077e9190611e91565b60405180910390fd5b600082116107cc57816040517ff9632e860000000000000000000000000000000000000000000000000000000081526004016107c391906116a5565b60405180910390fd5b600460008154809291906107df90611ee2565b9190505550604051806080016040528084815260200183815260200160011515815260200182815250600260006004548152602001908152602001600020600082015181600001908161083291906120cc565b506020820151816001015560408201518160020160006101000a81548160ff021916908315150217905550606082015181600301908161087291906120cc565b509050506004547f642f95fc4f73850f9892227ccee20fac4904ba0645894b644766d21a1a8d820584846040516108aa92919061219e565b60405180910390a2505050565b6108bf61135c565b6108c960006113e3565b565b60008060009054906101000a900473ffffffffffffffffffffffffffffffffffffffff16905090565b600260205280600052604060002060009150905080600001805461091790611d1c565b80601f016020809104026020016040519081016040528092919081815260200182805461094390611d1c565b80156109905780601f1061096557610100808354040283529160200191610990565b820191906000526020600020905b81548152906001019060200180831161097357829003601f168201915b5050505050908060010154908060020160009054906101000a900460ff16908060030180546109be90611d1c565b80601f01602080910402602001604051908101604052809291908181526020018280546109ea90611d1c565b8015610a375780601f10610a0c57610100808354040283529160200191610a37565b820191906000526020600020905b815481529060010190602001808311610a1a57829003601f168201915b5050505050905084565b6060600360008373ffffffffffffffffffffffffffffffffffffffff1673ffffffffffffffffffffffffffffffffffffffff168152602001908152602001600020805480602002602001604051908101604052809291908181526020016000905b82821015610af25783829060005260206000209060030201604051806060016040529081600082015481526020016001820154815260200160028201548152505081526020019060010190610aa2565b505050509050919050565b6000811480610b0d575060045481115b15610b5357806004546040517fe777fb71000000000000000000000000000000000000000000000000000000008152600401610b4a929190611cc4565b60405180910390fd5b60006002600083815260200190815260200160002090508060020160009054906101000a900460ff16610bc25781816000016040517f2e59a3dc000000000000000000000000000000000000000000000000000000008152600401610bb9929190612252565b60405180910390fd5b6000600360003373ffffffffffffffffffffffffffffffffffffffff1673ffffffffffffffffffffffffffffffffffffffff168152602001908152602001600020905060005b8180549050811015610c8b5783828281548110610c2857610c27612282565b5b90600052602060002090600302016000015403610c7e5783336040517f5180c803000000000000000000000000000000000000000000000000000000008152600401610c759291906122b1565b60405180910390fd5b8080600101915050610c08565b506000600160009054906101000a900473ffffffffffffffffffffffffffffffffffffffff1673ffffffffffffffffffffffffffffffffffffffff1663dd62ed3e33306040518363ffffffff1660e01b8152600401610ceb929190611d4d565b602060405180830381865afa158015610d08573d6000803e3d6000fd5b505050506040513d601f19601f82011682018060405250810190610d2c9190611d8b565b90508260010154811015610d7d578260010154816040517f2a1b2dd8000000000000000000000000000000000000000000000000000000008152600401610d74929190611cc4565b60405180910390fd5b6000600160009054906101000a900473ffffffffffffffffffffffffffffffffffffffff1673ffffffffffffffffffffffffffffffffffffffff166370a08231336040518263ffffffff1660e01b8152600401610dda91906118c1565b602060405180830381865afa158015610df7573d6000803e3d6000fd5b505050506040513d601f19601f82011682018060405250810190610e1b9190611d8b565b90508360010154811015610e6e57338460010154826040517fdb42144d000000000000000000000000000000000000000000000000000000008152600401610e6593929190611db8565b60405180910390fd5b6000600160009054906101000a900473ffffffffffffffffffffffffffffffffffffffff1673ffffffffffffffffffffffffffffffffffffffff166323b872dd333088600101546040518463ffffffff1660e01b8152600401610ed393929190611e5a565b6020604051808303816000875af1158015610ef2573d6000803e3d6000fd5b505050506040513d601f19601f82011682018060405250810190610f169190611e2d565b905080610f6257333086600101546040517fc8776798000000000000000000000000000000000000000000000000000000008152600401610f5993929190611e5a565b60405180910390fd5b600360003373ffffffffffffffffffffffffffffffffffffffff1673ffffffffffffffffffffffffffffffffffffffff1681526020019081526020016000206040518060600160405280888152602001428152602001876001015481525090806001815401808255809150506001900390600052602060002090600302016000909190919091506000820151816000015560208201518160010155604082015181600201555050853373ffffffffffffffffffffffffffffffffffffffff167f4b71ef6d807a9a201a6f28d104a403722af74f85b8f2042a8d152bd2a78f5586876001015460405161105491906116a5565b60405180910390a3505050505050565b6003602052816000526040600020818154811061108057600080fd5b9060005260206000209060030201600091509150508060000154908060010154908060020154905083565b600160009054906101000a900473ffffffffffffffffffffffffffffffffffffffff1681565b6110d961135c565b600073ffffffffffffffffffffffffffffffffffffffff168173ffffffffffffffffffffffffffffffffffffffff160361114b5760006040517f1e4fbdf700000000000000000000000000000000000000000000000000000000815260040161114291906118c1565b60405180910390fd5b611154816113e3565b50565b61115f6108cb565b73ffffffffffffffffffffffffffffffffffffffff163373ffffffffffffffffffffffffffffffffffffffff16146111d7573361119a6108cb565b6040517f4116c50f0000000000000000000000000000000000000000000000000000000081526004016111ce929190611d4d565b60405180910390fd5b60008514806111e7575060045485115b1561122d57846004546040517fe777fb71000000000000000000000000000000000000000000000000000000008152600401611224929190611cc4565b60405180910390fd5b600084510361127357836040517f7f19f48d00000000000000000000000000000000000000000000000000000000815260040161126a9190611e91565b60405180910390fd5b600083036112b857826040517ff9632e860000000000000000000000000000000000000000000000000000000081526004016112af91906116a5565b60405180910390fd5b6000600260008781526020019081526020016000209050848160000190816112e091906120cc565b50838160010181905550828160020160006101000a81548160ff0219169083151502179055508181600301908161131791906120cc565b50857f2a862fb735381b2e519f2392b5deecb8239b129cc07879a1cce4f542c01cb59e86868660405161134c939291906122da565b60405180910390a2505050505050565b6113646114a7565b73ffffffffffffffffffffffffffffffffffffffff166113826108cb565b73ffffffffffffffffffffffffffffffffffffffff16146113e1576113a56114a7565b6040517f118cdaa70000000000000000000000000000000000000000000000000000000081526004016113d891906118c1565b60405180910390fd5b565b60008060009054906101000a900473ffffffffffffffffffffffffffffffffffffffff169050816000806101000a81548173ffffffffffffffffffffffffffffffffffffffff021916908373ffffffffffffffffffffffffffffffffffffffff1602179055508173ffffffffffffffffffffffffffffffffffffffff168173ffffffffffffffffffffffffffffffffffffffff167f8be0079c531659141344cd1fd0a4f28419497f9722a3daafe3b4186f6b6457e060405160405180910390a35050565b600033905090565b60405180608001604052806060815260200160008152602001600015158152602001606081525090565b6000604051905090565b600080fd5b600080fd5b6000819050919050565b611500816114ed565b811461150b57600080fd5b50565b60008135905061151d816114f7565b92915050565b600060208284031215611539576115386114e3565b5b60006115478482850161150e565b91505092915050565b600081519050919050565b600082825260208201905092915050565b60005b8381101561158a57808201518184015260208101905061156f565b60008484015250505050565b6000601f19601f8301169050919050565b60006115b282611550565b6115bc818561155b565b93506115cc81856020860161156c565b6115d581611596565b840191505092915050565b6115e9816114ed565b82525050565b60008115159050919050565b611604816115ef565b82525050565b6000608083016000830151848203600086015261162782826115a7565b915050602083015161163c60208601826115e0565b50604083015161164f60408601826115fb565b506060830151848203606086015261166782826115a7565b9150508091505092915050565b6000602082019050818103600083015261168e818461160a565b905092915050565b61169f816114ed565b82525050565b60006020820190506116ba6000830184611696565b92915050565b600080fd5b600080fd5b7f4e487b7100000000000000000000000000000000000000000000000000000000600052604160045260246000fd5b61170282611596565b810181811067ffffffffffffffff82111715611721576117206116ca565b5b80604052505050565b60006117346114d9565b905061174082826116f9565b919050565b600067ffffffffffffffff8211156117605761175f6116ca565b5b61176982611596565b9050602081019050919050565b82818337600083830152505050565b600061179861179384611745565b61172a565b9050828152602081018484840111156117b4576117b36116c5565b5b6117bf848285611776565b509392505050565b600082601f8301126117dc576117db6116c0565b5b81356117ec848260208601611785565b91505092915050565b60008060006060848603121561180e5761180d6114e3565b5b600084013567ffffffffffffffff81111561182c5761182b6114e8565b5b611838868287016117c7565b93505060206118498682870161150e565b925050604084013567ffffffffffffffff81111561186a576118696114e8565b5b611876868287016117c7565b9150509250925092565b600073ffffffffffffffffffffffffffffffffffffffff82169050919050565b60006118ab82611880565b9050919050565b6118bb816118a0565b82525050565b60006020820190506118d660008301846118b2565b92915050565b600082825260208201905092915050565b60006118f882611550565b61190281856118dc565b935061191281856020860161156c565b61191b81611596565b840191505092915050565b61192f816115ef565b82525050565b6000608082019050818103600083015261194f81876118ed565b905061195e6020830186611696565b61196b6040830185611926565b818103606083015261197d81846118ed565b905095945050505050565b611991816118a0565b811461199c57600080fd5b50565b6000813590506119ae81611988565b92915050565b6000602082840312156119ca576119c96114e3565b5b60006119d88482850161199f565b91505092915050565b600081519050919050565b600082825260208201905092915050565b6000819050602082019050919050565b606082016000820151611a2360008501826115e0565b506020820151611a3660208501826115e0565b506040820151611a4960408501826115e0565b50505050565b6000611a5b8383611a0d565b60608301905092915050565b6000602082019050919050565b6000611a7f826119e1565b611a8981856119ec565b9350611a94836119fd565b8060005b83811015611ac5578151611aac8882611a4f565b9750611ab783611a67565b925050600181019050611a98565b5085935050505092915050565b60006020820190508181036000830152611aec8184611a74565b905092915050565b60008060408385031215611b0b57611b0a6114e3565b5b6000611b198582860161199f565b9250506020611b2a8582860161150e565b9150509250929050565b6000606082019050611b496000830186611696565b611b566020830185611696565b611b636040830184611696565b949350505050565b6000819050919050565b6000611b90611b8b611b8684611880565b611b6b565b611880565b9050919050565b6000611ba282611b75565b9050919050565b6000611bb482611b97565b9050919050565b611bc481611ba9565b82525050565b6000602082019050611bdf6000830184611bbb565b92915050565b611bee816115ef565b8114611bf957600080fd5b50565b600081359050611c0b81611be5565b92915050565b600080600080600060a08688031215611c2d57611c2c6114e3565b5b6000611c3b8882890161150e565b955050602086013567ffffffffffffffff811115611c5c57611c5b6114e8565b5b611c68888289016117c7565b9450506040611c798882890161150e565b9350506060611c8a88828901611bfc565b925050608086013567ffffffffffffffff811115611cab57611caa6114e8565b5b611cb7888289016117c7565b9150509295509295909350565b6000604082019050611cd96000830185611696565b611ce66020830184611696565b9392505050565b7f4e487b7100000000000000000000000000000000000000000000000000000000600052602260045260246000fd5b60006002820490506001821680611d3457607f821691505b602082108103611d4757611d46611ced565b5b50919050565b6000604082019050611d6260008301856118b2565b611d6f60208301846118b2565b9392505050565b600081519050611d85816114f7565b92915050565b600060208284031215611da157611da06114e3565b5b6000611daf84828501611d76565b91505092915050565b6000606082019050611dcd60008301866118b2565b611dda6020830185611696565b611de76040830184611696565b949350505050565b6000604082019050611e0460008301856118b2565b611e116020830184611696565b9392505050565b600081519050611e2781611be5565b92915050565b600060208284031215611e4357611e426114e3565b5b6000611e5184828501611e18565b91505092915050565b6000606082019050611e6f60008301866118b2565b611e7c60208301856118b2565b611e896040830184611696565b949350505050565b60006020820190508181036000830152611eab81846118ed565b905092915050565b7f4e487b7100000000000000000000000000000000000000000000000000000000600052601160045260246000fd5b6000611eed826114ed565b91507fffffffffffffffffffffffffffffffffffffffffffffffffffffffffffffffff8203611f1f57611f1e611eb3565b5b600182019050919050565b60008190508160005260206000209050919050565b60006020601f8301049050919050565b600082821b905092915050565b600060088302611f8c7fffffffffffffffffffffffffffffffffffffffffffffffffffffffffffffffff82611f4f565b611f968683611f4f565b95508019841693508086168417925050509392505050565b6000611fc9611fc4611fbf846114ed565b611b6b565b6114ed565b9050919050565b6000819050919050565b611fe383611fae565b611ff7611fef82611fd0565b848454611f5c565b825550505050565b600090565b61200c611fff565b612017818484611fda565b505050565b5b8181101561203b57612030600082612004565b60018101905061201d565b5050565b601f8211156120805761205181611f2a565b61205a84611f3f565b81016020851015612069578190505b61207d61207585611f3f565b83018261201c565b50505b505050565b600082821c905092915050565b60006120a360001984600802612085565b1980831691505092915050565b60006120bc8383612092565b9150826002028217905092915050565b6120d582611550565b67ffffffffffffffff8111156120ee576120ed6116ca565b5b6120f88254611d1c565b61210382828561203f565b600060209050601f8311600181146121365760008415612124578287015190505b61212e85826120b0565b865550612196565b601f19841661214486611f2a565b60005b8281101561216c57848901518255600182019150602085019450602081019050612147565b868310156121895784890151612185601f891682612092565b8355505b6001600288020188555050505b505050505050565b600060408201905081810360008301526121b881856118ed565b90506121c76020830184611696565b9392505050565b600081546121db81611d1c565b6121e581866118dc565b94506001821660008114612200576001811461221657612249565b60ff198316865281151560200286019350612249565b61221f85611f2a565b60005b8381101561224157815481890152600182019150602081019050612222565b808801955050505b50505092915050565b60006040820190506122676000830185611696565b818103602083015261227981846121ce565b90509392505050565b7f4e487b7100000000000000000000000000000000000000000000000000000000600052603260045260246000fd5b60006040820190506122c66000830185611696565b6122d360208301846118b2565b9392505050565b600060608201905081810360008301526122f481866118ed565b90506123036020830185611696565b6123106040830184611926565b94935050505056fea26469706673582212208de61872c57c48011cf69577b4425aebefb7625ac009abf8f34d5a645757729964736f6c634300081c0033",
  "linkReferences": {},
  "deployedLinkReferences": {}
}