{
  "_format": "hh-sol-artifact-1",
  "contractName": "XhtToken",
  "sourceName": "contracts/xhtToken.sol",
  "abi": [
    {
      "inputs": [],
      "stateMutability": "nonpayable",
      "type": "constructor"
    },
    {
      "inputs": [
        {
          "internalType": "address",
          "name": "spender",
          "type": "address"
        },
        {
          "internalType": "uint256",
          "name": "allowance",
          "type": "uint256"
        },
        {
          "internalType": "uint256",
          "name": "needed",
          "type": "uint256"
        }
      ],
      "name": "ERC20InsufficientAllowance",
      "type": "error"
    },
    {
      "inputs": [
        {
          "internalType": "address",
          "name": "sender",
          "type": "address"
        },
        {
          "internalType": "uint256",
          "name": "balance",
          "type": "uint256"
        },
        {
          "internalType": "uint256",
          "name": "needed",
          "type": "uint256"
        }
      ],
      "name": "ERC20InsufficientBalance",
      "type": "error"
    },
    {
      "inputs": [
        {
          "internalType": "address",
          "name": "approver",
          "type": "address"
        }
      ],
      "name": "ERC20InvalidApprover",
      "type": "error"
    },
    {
      "inputs": [
        {
          "internalType": "address",
          "name": "receiver",
          "type": "address"
        }
      ],
      "name": "ERC20InvalidReceiver",
      "type": "error"
    },
    {
      "inputs": [
        {
          "internalType": "address",
          "name": "sender",
          "type": "address"
        }
      ],
      "name": "ERC20InvalidSender",
      "type": "error"
    },
    {
      "inputs": [
        {
          "internalType": "address",
          "name": "spender",
          "type": "address"
        }
      ],
      "name": "ERC20InvalidSpender",
      "type": "error"
    },
    {
      "inputs": [
        {
          "internalType": "address",
          "name": "owner",
          "type": "address"
        }
      ],
      "name": "OwnableInvalidOwner",
      "type": "error"
    },
    {
      "inputs": [
        {
          "internalType": "address",
          "name": "account",
          "type": "address"
        }
      ],
      "name": "OwnableUnauthorizedAccount",
      "type": "error"
    },
    {
      "anonymous": false,
      "inputs": [
        {
          "indexed": true,
          "internalType": "address",
          "name": "owner",
          "type": "address"
        },
        {
          "indexed": true,
          "internalType": "address",
          "name": "spender",
          "type": "address"
        },
        {
          "indexed": false,
          "internalType": "uint256",
          "name": "value",
          "type": "uint256"
        }
      ],
      "name": "Approval",
      "type": "event"
    },
    {
      "anonymous": false,
      "inputs": [
        {
          "indexed": true,
          "internalType": "address",
          "name": "owner",
          "type": "address"
        },
        {
          "indexed": false,
          "internalType": "uint256",
          "name": "amount",
          "type": "uint256"
        }
      ],
      "name": "ETHWithdrawn",
      "type": "event"
    },
    {
      "anonymous": false,
      "inputs": [
        {
          "indexed": true,
          "internalType": "address",
          "name": "sender",
          "type": "address"
        },
        {
          "indexed": false,
          "internalType": "uint256",
          "name": "amount",
          "type": "uint256"
        },
        {
          "indexed": false,
          "internalType": "bytes",
          "name": "data",
          "type": "bytes"
        }
      ],
      "name": "FallbackCalled",
      "type": "event"
    },
    {
      "anonymous": false,
      "inputs": [
        {
          "indexed": false,
          "internalType": "address",
          "name": "teamWallet",
          "type": "address"
        },
        {
          "indexed": false,
          "internalType": "address",
          "name": "marketingWallet",
          "type": "address"
        },
        {
          "indexed": false,
          "internalType": "address",
          "name": "communityWallet",
          "type": "address"
        }
      ],
      "name": "InitialDistributionCompleted",
      "type": "event"
    },
    {
      "anonymous": false,
      "inputs": [
        {
          "indexed": true,
          "internalType": "address",
          "name": "previousOwner",
          "type": "address"
        },
        {
          "indexed": true,
          "internalType": "address",
          "name": "newOwner",
          "type": "address"
        }
      ],
      "name": "OwnershipTransferred",
      "type": "event"
    },
    {
      "anonymous": false,
      "inputs": [
        {
          "indexed": false,
          "internalType": "uint256",
          "name": "newPrice",
          "type": "uint256"
        }
      ],
      "name": "PriceUpdated",
      "type": "event"
    },
    {
      "anonymous": false,
      "inputs": [
        {
          "indexed": true,
          "internalType": "address",
          "name": "sender",
          "type": "address"
        },
        {
          "indexed": false,
          "internalType": "uint256",
          "name": "amount",
          "type": "uint256"
        }
      ],
      "name": "ReceivedETH",
      "type": "event"
    },
    {
      "anonymous": false,
      "inputs": [
        {
          "indexed": true,
          "internalType": "address",
          "name": "buyer",
          "type": "address"
        },
        {
          "indexed": false,
          "internalType": "uint256",
          "name": "ethAmount",
          "type": "uint256"
        },
        {
          "indexed": false,
          "internalType": "uint256",
          "name": "tokenAmount",
          "type": "uint256"
        }
      ],
      "name": "TokensPurchased",
      "type": "event"
    },
    {
      "anonymous": false,
      "inputs": [
        {
          "indexed": true,
          "internalType": "address",
          "name": "seller",
          "type": "address"
        },
        {
          "indexed": false,
          "internalType": "uint256",
          "name": "tokenAmount",
          "type": "uint256"
        },
        {
          "indexed": false,
          "internalType": "uint256",
          "name": "ethAmount",
          "type": "uint256"
        }
      ],
      "name": "TokensSold",
      "type": "event"
    },
    {
      "anonymous": false,
      "inputs": [
        {
          "indexed": true,
          "internalType": "address",
          "name": "from",
          "type": "address"
        },
        {
          "indexed": true,
          "internalType": "address",
          "name": "to",
          "type": "address"
        },
        {
          "indexed": false,
          "internalType": "uint256",
          "name": "value",
          "type": "uint256"
        }
      ],
      "name": "Transfer",
      "type": "event"
    },
    {
      "stateMutability": "payable",
      "type": "fallback"
    },
    {
      "inputs": [],
      "name": "COMMUNITY_ALLOCATION",
      "outputs": [
        {
          "internalType": "uint256",
          "name": "",
          "type": "uint256"
        }
      ],
      "stateMutability": "view",
      "type": "function"
    },
    {
      "inputs": [],
      "name": "MARKETING_ALLOCATION",
      "outputs": [
        {
          "internalType": "uint256",
          "name": "",
          "type": "uint256"
        }
      ],
      "stateMutability": "view",
      "type": "function"
    },
    {
      "inputs": [],
      "name": "MAX_SUPPLY",
      "outputs": [
        {
          "internalType": "uint256",
          "name": "",
          "type": "uint256"
        }
      ],
      "stateMutability": "view",
      "type": "function"
    },
    {
      "inputs": [],
      "name": "TEAM_ALLOCATION",
      "outputs": [
        {
          "internalType": "uint256",
          "name": "",
          "type": "uint256"
        }
      ],
      "stateMutability": "view",
      "type": "function"
    },
    {
      "inputs": [],
      "name": "TOKENS_PER_ETH",
      "outputs": [
        {
          "internalType": "uint256",
          "name": "",
          "type": "uint256"
        }
      ],
      "stateMutability": "view",
      "type": "function"
    },
    {
      "inputs": [
        {
          "internalType": "address",
          "name": "owner",
          "type": "address"
        },
        {
          "internalType": "address",
          "name": "spender",
          "type": "address"
        }
      ],
      "name": "allowance",
      "outputs": [
        {
          "internalType": "uint256",
          "name": "",
          "type": "uint256"
        }
      ],
      "stateMutability": "view",
      "type": "function"
    },
    {
      "inputs": [
        {
          "internalType": "address",
          "name": "spender",
          "type": "address"
        },
        {
          "internalType": "uint256",
          "name": "value",
          "type": "uint256"
        }
      ],
      "name": "approve",
      "outputs": [
        {
          "internalType": "bool",
          "name": "",
          "type": "bool"
        }
      ],
      "stateMutability": "nonpayable",
      "type": "function"
    },
    {
      "inputs": [
        {
          "internalType": "address",
          "name": "account",
          "type": "address"
        }
      ],
      "name": "balanceOf",
      "outputs": [
        {
          "internalType": "uint256",
          "name": "",
          "type": "uint256"
        }
      ],
      "stateMutability": "view",
      "type": "function"
    },
    {
      "inputs": [],
      "name": "buyTokens",
      "outputs": [],
      "stateMutability": "payable",
      "type": "function"
    },
    {
      "inputs": [],
      "name": "decimals",
      "outputs": [
        {
          "internalType": "uint8",
          "name": "",
          "type": "uint8"
        }
      ],
      "stateMutability": "pure",
      "type": "function"
    },
    {
      "inputs": [],
      "name": "getContractBalance",
      "outputs": [
        {
          "internalType": "uint256",
          "name": "",
          "type": "uint256"
        }
      ],
      "stateMutability": "view",
      "type": "function"
    },
    {
      "inputs": [],
      "name": "getContractTokenBalance",
      "outputs": [
        {
          "internalType": "uint256",
          "name": "",
          "type": "uint256"
        }
      ],
      "stateMutability": "view",
      "type": "function"
    },
    {
      "inputs": [],
      "name": "getCurrentTokenPrice",
      "outputs": [
        {
          "internalType": "uint256",
          "name": "",
          "type": "uint256"
        }
      ],
      "stateMutability": "view",
      "type": "function"
    },
    {
      "inputs": [
        {
          "internalType": "address",
          "name": "teamWallet",
          "type": "address"
        },
        {
          "internalType": "address",
          "name": "marketingWallet",
          "type": "address"
        },
        {
          "internalType": "address",
          "name": "communityWallet",
          "type": "address"
        }
      ],
      "name": "initialDistribution",
      "outputs": [],
      "stateMutability": "nonpayable",
      "type": "function"
    },
    {
      "inputs": [],
      "name": "initialDistributionDone",
      "outputs": [
        {
          "internalType": "bool",
          "name": "",
          "type": "bool"
        }
      ],
      "stateMutability": "view",
      "type": "function"
    },
    {
      "inputs": [],
      "name": "name",
      "outputs": [
        {
          "internalType": "string",
          "name": "",
          "type": "string"
        }
      ],
      "stateMutability": "view",
      "type": "function"
    },
    {
      "inputs": [],
      "name": "owner",
      "outputs": [
        {
          "internalType": "address",
          "name": "",
          "type": "address"
        }
      ],
      "stateMutability": "view",
      "type": "function"
    },
    {
      "inputs": [],
      "name": "price",
      "outputs": [
        {
          "internalType": "uint256",
          "name": "",
          "type": "uint256"
        }
      ],
      "stateMutability": "view",
      "type": "function"
    },
    {
      "inputs": [],
      "name": "renounceOwnership",
      "outputs": [],
      "stateMutability": "nonpayable",
      "type": "function"
    },
    {
      "inputs": [
        {
          "internalType": "uint256",
          "name": "tokenAmount",
          "type": "uint256"
        }
      ],
      "name": "sellTokens",
      "outputs": [],
      "stateMutability": "nonpayable",
      "type": "function"
    },
    {
      "inputs": [],
      "name": "symbol",
      "outputs": [
        {
          "internalType": "string",
          "name": "",
          "type": "string"
        }
      ],
      "stateMutability": "view",
      "type": "function"
    },
    {
      "inputs": [],
      "name": "totalSupply",
      "outputs": [
        {
          "internalType": "uint256",
          "name": "",
          "type": "uint256"
        }
      ],
      "stateMutability": "view",
      "type": "function"
    },
    {
      "inputs": [
        {
          "internalType": "address",
          "name": "to",
          "type": "address"
        },
        {
          "internalType": "uint256",
          "name": "value",
          "type": "uint256"
        }
      ],
      "name": "transfer",
      "outputs": [
        {
          "internalType": "bool",
          "name": "",
          "type": "bool"
        }
      ],
      "stateMutability": "nonpayable",
      "type": "function"
    },
    {
      "inputs": [
        {
          "internalType": "address",
          "name": "from",
          "type": "address"
        },
        {
          "internalType": "address",
          "name": "to",
          "type": "address"
        },
        {
          "internalType": "uint256",
          "name": "value",
          "type": "uint256"
        }
      ],
      "name": "transferFrom",
      "outputs": [
        {
          "internalType": "bool",
          "name": "",
          "type": "bool"
        }
      ],
      "stateMutability": "nonpayable",
      "type": "function"
    },
    {
      "inputs": [
        {
          "internalType": "address",
          "name": "newOwner",
          "type": "address"
        }
      ],
      "name": "transferOwnership",
      "outputs": [],
      "stateMutability": "nonpayable",
      "type": "function"
    },
    {
      "inputs": [
        {
          "internalType": "uint256",
          "name": "newPrice",
          "type": "uint256"
        }
      ],
      "name": "updatePrice",
      "outputs": [],
      "stateMutability": "nonpayable",
      "type": "function"
    },
    {
      "inputs": [],
      "name": "withdrawETH",
      "outputs": [],
      "stateMutability": "nonpayable",
      "type": "function"
    },
    {
      "stateMutability": "payable",
      "type": "receive"
    }
  ],
  "bytecode": "0x608060405266038d7ea4c6800060065534801561001b57600080fd5b50336040518060400160405280600981526020017f78687420546f6b656e00000000000000000000000000000000000000000000008152506040518060400160405280600381526020017f584854000000000000000000000000000000000000000000000000000000000081525081600390816100989190610708565b5080600490816100a89190610708565b505050600073ffffffffffffffffffffffffffffffffffffffff168173ffffffffffffffffffffffffffffffffffffffff160361011d5760006040517f1e4fbdf7000000000000000000000000000000000000000000000000000000008152600401610114919061081b565b60405180910390fd5b61012c8161014560201b60201c565b5061014033620f424061020b60201b60201c565b6108fa565b6000600560009054906101000a900473ffffffffffffffffffffffffffffffffffffffff16905081600560006101000a81548173ffffffffffffffffffffffffffffffffffffffff021916908373ffffffffffffffffffffffffffffffffffffffff1602179055508173ffffffffffffffffffffffffffffffffffffffff168173ffffffffffffffffffffffffffffffffffffffff167f8be0079c531659141344cd1fd0a4f28419497f9722a3daafe3b4186f6b6457e060405160405180910390a35050565b600073ffffffffffffffffffffffffffffffffffffffff168273ffffffffffffffffffffffffffffffffffffffff160361027d5760006040517fec442f05000000000000000000000000000000000000000000000000000000008152600401610274919061081b565b60405180910390fd5b61028f6000838361029360201b60201c565b5050565b600073ffffffffffffffffffffffffffffffffffffffff168373ffffffffffffffffffffffffffffffffffffffff16036102e55780600260008282546102d99190610865565b925050819055506103b8565b60008060008573ffffffffffffffffffffffffffffffffffffffff1673ffffffffffffffffffffffffffffffffffffffff16815260200190815260200160002054905081811015610371578381836040517fe450d38c000000000000000000000000000000000000000000000000000000008152600401610368939291906108a8565b60405180910390fd5b8181036000808673ffffffffffffffffffffffffffffffffffffffff1673ffffffffffffffffffffffffffffffffffffffff16815260200190815260200160002081905550505b600073ffffffffffffffffffffffffffffffffffffffff168273ffffffffffffffffffffffffffffffffffffffff1603610401578060026000828254039250508190555061044e565b806000808473ffffffffffffffffffffffffffffffffffffffff1673ffffffffffffffffffffffffffffffffffffffff168152602001908152602001600020600082825401925050819055505b8173ffffffffffffffffffffffffffffffffffffffff168373ffffffffffffffffffffffffffffffffffffffff167fddf252ad1be2c89b69c2b068fc378daa952ba7f163c4a11628f55a4df523b3ef836040516104ab91906108df565b60405180910390a3505050565b600081519050919050565b7f4e487b7100000000000000000000000000000000000000000000000000000000600052604160045260246000fd5b7f4e487b7100000000000000000000000000000000000000000000000000000000600052602260045260246000fd5b6000600282049050600182168061053957607f821691505b60208210810361054c5761054b6104f2565b5b50919050565b60008190508160005260206000209050919050565b60006020601f8301049050919050565b600082821b905092915050565b6000600883026105b47fffffffffffffffffffffffffffffffffffffffffffffffffffffffffffffffff82610577565b6105be8683610577565b95508019841693508086168417925050509392505050565b6000819050919050565b6000819050919050565b60006106056106006105fb846105d6565b6105e0565b6105d6565b9050919050565b6000819050919050565b61061f836105ea565b61063361062b8261060c565b848454610584565b825550505050565b600090565b61064861063b565b610653818484610616565b505050565b5b818110156106775761066c600082610640565b600181019050610659565b5050565b601f8211156106bc5761068d81610552565b61069684610567565b810160208510156106a5578190505b6106b96106b185610567565b830182610658565b50505b505050565b600082821c905092915050565b60006106df600019846008026106c1565b1980831691505092915050565b60006106f883836106ce565b9150826002028217905092915050565b610711826104b8565b67ffffffffffffffff81111561072a576107296104c3565b5b6107348254610521565b61073f82828561067b565b600060209050601f8311600181146107725760008415610760578287015190505b61076a85826106ec565b8655506107d2565b601f19841661078086610552565b60005b828110156107a857848901518255600182019150602085019450602081019050610783565b868310156107c557848901516107c1601f8916826106ce565b8355505b6001600288020188555050505b505050505050565b600073ffffffffffffffffffffffffffffffffffffffff82169050919050565b6000610805826107da565b9050919050565b610815816107fa565b82525050565b6000602082019050610830600083018461080c565b92915050565b7f4e487b7100000000000000000000000000000000000000000000000000000000600052601160045260246000fd5b6000610870826105d6565b915061087b836105d6565b925082820190508082111561089357610892610836565b5b92915050565b6108a2816105d6565b82525050565b60006060820190506108bd600083018661080c565b6108ca6020830185610899565b6108d76040830184610899565b949350505050565b60006020820190506108f46000830184610899565b92915050565b61248d806109096000396000f3fe6080604052600436106101a05760003560e01c80638d6cc56d116100ec578063bc6e66041161008a578063e086e5ec11610064578063e086e5ec14610646578063f2fde38b1461065d578063f751758b14610686578063fd99cbed146106b1576101f5565b8063bc6e6604146105d4578063d0febe4c146105ff578063dd62ed3e14610609576101f5565b806395d89b41116100c657806395d89b4114610516578063993eb1c514610541578063a035b1fe1461056c578063a9059cbb14610597576101f5565b80638d6cc56d146104975780638da5cb5b146104c05780638e80bd39146104eb576101f5565b8063317d9453116101595780636c11bcd3116101335780636c11bcd3146103ef5780636f9fb98a1461041857806370a0823114610443578063715018a614610480576101f5565b8063317d94531461037057806332cb6b0c1461039b5780635a590001146103c6576101f5565b80630535ec771461024a57806306fdde0314610275578063095ea7b3146102a057806318160ddd146102dd57806323b872dd14610308578063313ce56714610345576101f5565b366101f5573373ffffffffffffffffffffffffffffffffffffffff167f4103257eaac983ca79a70d28f90dfc4fa16b619bb0c17ee7cab0d4034c279624346040516101eb91906118c7565b60405180910390a2005b3373ffffffffffffffffffffffffffffffffffffffff167faca09dd456ca888dccf8cc966e382e6e3042bb7e4d2d7815015f844edeafce423460003660405161024093929190611940565b60405180910390a2005b34801561025657600080fd5b5061025f6106dc565b60405161026c919061198d565b60405180910390f35b34801561028157600080fd5b5061028a6106ef565b6040516102979190611a27565b60405180910390f35b3480156102ac57600080fd5b506102c760048036038101906102c29190611ad8565b610781565b6040516102d4919061198d565b60405180910390f35b3480156102e957600080fd5b506102f26107a4565b6040516102ff91906118c7565b60405180910390f35b34801561031457600080fd5b5061032f600480360381019061032a9190611b18565b6107ae565b60405161033c919061198d565b60405180910390f35b34801561035157600080fd5b5061035a6107dd565b6040516103679190611b87565b60405180910390f35b34801561037c57600080fd5b506103856107e2565b60405161039291906118c7565b60405180910390f35b3480156103a757600080fd5b506103b06107f2565b6040516103bd91906118c7565b60405180910390f35b3480156103d257600080fd5b506103ed60048036038101906103e89190611ba2565b6107f9565b005b3480156103fb57600080fd5b5061041660048036038101906104119190611bf5565b6109b8565b005b34801561042457600080fd5b5061042d610bba565b60405161043a91906118c7565b60405180910390f35b34801561044f57600080fd5b5061046a60048036038101906104659190611c22565b610bc2565b60405161047791906118c7565b60405180910390f35b34801561048c57600080fd5b50610495610c0a565b005b3480156104a357600080fd5b506104be60048036038101906104b99190611bf5565b610c1e565b005b3480156104cc57600080fd5b506104d5610caa565b6040516104e29190611c5e565b60405180910390f35b3480156104f757600080fd5b50610500610cd4565b60405161050d91906118c7565b60405180910390f35b34801561052257600080fd5b5061052b610cdb565b6040516105389190611a27565b60405180910390f35b34801561054d57600080fd5b50610556610d6d565b60405161056391906118c7565b60405180910390f35b34801561057857600080fd5b50610581610d74565b60405161058e91906118c7565b60405180910390f35b3480156105a357600080fd5b506105be60048036038101906105b99190611ad8565b610d7a565b6040516105cb919061198d565b60405180910390f35b3480156105e057600080fd5b506105e9610d9d565b6040516105f691906118c7565b60405180910390f35b610607610da3565b005b34801561061557600080fd5b50610630600480360381019061062b9190611c79565b610f48565b60405161063d91906118c7565b60405180910390f35b34801561065257600080fd5b5061065b610fcf565b005b34801561066957600080fd5b50610684600480360381019061067f9190611c22565b61112b565b005b34801561069257600080fd5b5061069b6111b1565b6040516106a891906118c7565b60405180910390f35b3480156106bd57600080fd5b506106c66111bb565b6040516106d391906118c7565b60405180910390f35b600760009054906101000a900460ff1681565b6060600380546106fe90611ce8565b80601f016020809104026020016040519081016040528092919081815260200182805461072a90611ce8565b80156107775780601f1061074c57610100808354040283529160200191610777565b820191906000526020600020905b81548152906001019060200180831161075a57829003601f168201915b5050505050905090565b60008061078c6111c2565b90506107998185856111ca565b600191505092915050565b6000600254905090565b6000806107b96111c2565b90506107c68582856111dc565b6107d1858585611271565b60019150509392505050565b600090565b60006107ed30610bc2565b905090565b620f424081565b610801611365565b600760009054906101000a900460ff1615610851576040517f08c379a000000000000000000000000000000000000000000000000000000000815260040161084890611d8b565b60405180910390fd5b600073ffffffffffffffffffffffffffffffffffffffff168373ffffffffffffffffffffffffffffffffffffffff16141580156108bb5750600073ffffffffffffffffffffffffffffffffffffffff168273ffffffffffffffffffffffffffffffffffffffff1614155b80156108f45750600073ffffffffffffffffffffffffffffffffffffffff168173ffffffffffffffffffffffffffffffffffffffff1614155b610933576040517f08c379a000000000000000000000000000000000000000000000000000000000815260040161092a90611df7565b60405180910390fd5b610941308462030d40611271565b61094f3083620186a0611271565b61095d3082620186a0611271565b6001600760006101000a81548160ff0219169083151502179055507f4864f7df2cd1c07972b3dbf1a98de81ddd7d784caf0078d5e5e372b219f6695c8383836040516109ab93929190611e17565b60405180910390a1505050565b600081116109fb576040517f08c379a00000000000000000000000000000000000000000000000000000000081526004016109f290611e9a565b60405180910390fd5b80610a0533610bc2565b1015610a46576040517f08c379a0000000000000000000000000000000000000000000000000000000008152600401610a3d90611f06565b60405180910390fd5b60006103e8670de0b6b3a764000083610a5f9190611f55565b610a699190611fc6565b905080471015610aae576040517f08c379a0000000000000000000000000000000000000000000000000000000008152600401610aa590612043565b60405180910390fd5b610ab9333084611271565b60003373ffffffffffffffffffffffffffffffffffffffff1682604051610adf90612094565b60006040518083038185875af1925050503d8060008114610b1c576040519150601f19603f3d011682016040523d82523d6000602084013e610b21565b606091505b5050905080610b65576040517f08c379a0000000000000000000000000000000000000000000000000000000008152600401610b5c906120f5565b60405180910390fd5b3373ffffffffffffffffffffffffffffffffffffffff167f2dcf9433d75db0d8b1c172641f85e319ffe4ad22e108a95d1847ceb906e5195d8484604051610bad929190612115565b60405180910390a2505050565b600047905090565b60008060008373ffffffffffffffffffffffffffffffffffffffff1673ffffffffffffffffffffffffffffffffffffffff168152602001908152602001600020549050919050565b610c12611365565b610c1c60006113ec565b565b610c26611365565b60008111610c69576040517f08c379a0000000000000000000000000000000000000000000000000000000008152600401610c609061218a565b60405180910390fd5b806006819055507f66cbca4f3c64fecf1dcb9ce094abcf7f68c3450a1d4e3a8e917dd621edb4ebe081604051610c9f91906118c7565b60405180910390a150565b6000600560009054906101000a900473ffffffffffffffffffffffffffffffffffffffff16905090565b620186a081565b606060048054610cea90611ce8565b80601f0160208091040260200160405190810160405280929190818152602001828054610d1690611ce8565b8015610d635780601f10610d3857610100808354040283529160200191610d63565b820191906000526020600020905b815481529060010190602001808311610d4657829003601f168201915b5050505050905090565b620186a081565b60065481565b600080610d856111c2565b9050610d92818585611271565b600191505092915050565b6103e881565b600654341015610de8576040517f08c379a0000000000000000000000000000000000000000000000000000000008152600401610ddf906121f6565b60405180910390fd5b600760009054906101000a900460ff16610e37576040517f08c379a0000000000000000000000000000000000000000000000000000000008152600401610e2e90612288565b60405180910390fd5b6000670de0b6b3a76400006103e834610e509190611f55565b610e5a9190611fc6565b905060008111610e9f576040517f08c379a0000000000000000000000000000000000000000000000000000000008152600401610e96906122f4565b60405180910390fd5b80610ea930610bc2565b1015610eea576040517f08c379a0000000000000000000000000000000000000000000000000000000008152600401610ee190612360565b60405180910390fd5b610ef5303383611271565b3373ffffffffffffffffffffffffffffffffffffffff167f8fafebcaf9d154343dad25669bfa277f4fbacd7ac6b0c4fed522580e040a0f333483604051610f3d929190612115565b60405180910390a250565b6000600160008473ffffffffffffffffffffffffffffffffffffffff1673ffffffffffffffffffffffffffffffffffffffff16815260200190815260200160002060008373ffffffffffffffffffffffffffffffffffffffff1673ffffffffffffffffffffffffffffffffffffffff16815260200190815260200160002054905092915050565b610fd7611365565b60004790506000811161101f576040517f08c379a0000000000000000000000000000000000000000000000000000000008152600401611016906123cc565b60405180910390fd5b6000611029610caa565b73ffffffffffffffffffffffffffffffffffffffff168260405161104c90612094565b60006040518083038185875af1925050503d8060008114611089576040519150601f19603f3d011682016040523d82523d6000602084013e61108e565b606091505b50509050806110d2576040517f08c379a00000000000000000000000000000000000000000000000000000000081526004016110c9906120f5565b60405180910390fd5b6110da610caa565b73ffffffffffffffffffffffffffffffffffffffff167f94b2de810873337ed265c5f8cf98c9cffefa06b8607f9a2f1fbaebdfbcfbef1c8360405161111f91906118c7565b60405180910390a25050565b611133611365565b600073ffffffffffffffffffffffffffffffffffffffff168173ffffffffffffffffffffffffffffffffffffffff16036111a55760006040517f1e4fbdf700000000000000000000000000000000000000000000000000000000815260040161119c9190611c5e565b60405180910390fd5b6111ae816113ec565b50565b6000600654905090565b62030d4081565b600033905090565b6111d783838360016114b2565b505050565b60006111e88484610f48565b90507fffffffffffffffffffffffffffffffffffffffffffffffffffffffffffffffff81101561126b578181101561125b578281836040517ffb8f41b2000000000000000000000000000000000000000000000000000000008152600401611252939291906123ec565b60405180910390fd5b61126a848484840360006114b2565b5b50505050565b600073ffffffffffffffffffffffffffffffffffffffff168373ffffffffffffffffffffffffffffffffffffffff16036112e35760006040517f96c6fd1e0000000000000000000000000000000000000000000000000000000081526004016112da9190611c5e565b60405180910390fd5b600073ffffffffffffffffffffffffffffffffffffffff168273ffffffffffffffffffffffffffffffffffffffff16036113555760006040517fec442f0500000000000000000000000000000000000000000000000000000000815260040161134c9190611c5e565b60405180910390fd5b611360838383611689565b505050565b61136d6111c2565b73ffffffffffffffffffffffffffffffffffffffff1661138b610caa565b73ffffffffffffffffffffffffffffffffffffffff16146113ea576113ae6111c2565b6040517f118cdaa70000000000000000000000000000000000000000000000000000000081526004016113e19190611c5e565b60405180910390fd5b565b6000600560009054906101000a900473ffffffffffffffffffffffffffffffffffffffff16905081600560006101000a81548173ffffffffffffffffffffffffffffffffffffffff021916908373ffffffffffffffffffffffffffffffffffffffff1602179055508173ffffffffffffffffffffffffffffffffffffffff168173ffffffffffffffffffffffffffffffffffffffff167f8be0079c531659141344cd1fd0a4f28419497f9722a3daafe3b4186f6b6457e060405160405180910390a35050565b600073ffffffffffffffffffffffffffffffffffffffff168473ffffffffffffffffffffffffffffffffffffffff16036115245760006040517fe602df0500000000000000000000000000000000000000000000000000000000815260040161151b9190611c5e565b60405180910390fd5b600073ffffffffffffffffffffffffffffffffffffffff168373ffffffffffffffffffffffffffffffffffffffff16036115965760006040517f94280d6200000000000000000000000000000000000000000000000000000000815260040161158d9190611c5e565b60405180910390fd5b81600160008673ffffffffffffffffffffffffffffffffffffffff1673ffffffffffffffffffffffffffffffffffffffff16815260200190815260200160002060008573ffffffffffffffffffffffffffffffffffffffff1673ffffffffffffffffffffffffffffffffffffffff168152602001908152602001600020819055508015611683578273ffffffffffffffffffffffffffffffffffffffff168473ffffffffffffffffffffffffffffffffffffffff167f8c5be1e5ebec7d5bd14f71427d1e84f3dd0314c0f7b2291e5b200ac8c7c3b9258460405161167a91906118c7565b60405180910390a35b50505050565b600073ffffffffffffffffffffffffffffffffffffffff168373ffffffffffffffffffffffffffffffffffffffff16036116db5780600260008282546116cf9190612423565b925050819055506117ae565b60008060008573ffffffffffffffffffffffffffffffffffffffff1673ffffffffffffffffffffffffffffffffffffffff16815260200190815260200160002054905081811015611767578381836040517fe450d38c00000000000000000000000000000000000000000000000000000000815260040161175e939291906123ec565b60405180910390fd5b8181036000808673ffffffffffffffffffffffffffffffffffffffff1673ffffffffffffffffffffffffffffffffffffffff16815260200190815260200160002081905550505b600073ffffffffffffffffffffffffffffffffffffffff168273ffffffffffffffffffffffffffffffffffffffff16036117f75780600260008282540392505081905550611844565b806000808473ffffffffffffffffffffffffffffffffffffffff1673ffffffffffffffffffffffffffffffffffffffff168152602001908152602001600020600082825401925050819055505b8173ffffffffffffffffffffffffffffffffffffffff168373ffffffffffffffffffffffffffffffffffffffff167fddf252ad1be2c89b69c2b068fc378daa952ba7f163c4a11628f55a4df523b3ef836040516118a191906118c7565b60405180910390a3505050565b6000819050919050565b6118c1816118ae565b82525050565b60006020820190506118dc60008301846118b8565b92915050565b600082825260208201905092915050565b82818337600083830152505050565b6000601f19601f8301169050919050565b600061191f83856118e2565b935061192c8385846118f3565b61193583611902565b840190509392505050565b600060408201905061195560008301866118b8565b8181036020830152611968818486611913565b9050949350505050565b60008115159050919050565b61198781611972565b82525050565b60006020820190506119a2600083018461197e565b92915050565b600081519050919050565b600082825260208201905092915050565b60005b838110156119e25780820151818401526020810190506119c7565b60008484015250505050565b60006119f9826119a8565b611a0381856119b3565b9350611a138185602086016119c4565b611a1c81611902565b840191505092915050565b60006020820190508181036000830152611a4181846119ee565b905092915050565b600080fd5b600073ffffffffffffffffffffffffffffffffffffffff82169050919050565b6000611a7982611a4e565b9050919050565b611a8981611a6e565b8114611a9457600080fd5b50565b600081359050611aa681611a80565b92915050565b611ab5816118ae565b8114611ac057600080fd5b50565b600081359050611ad281611aac565b92915050565b60008060408385031215611aef57611aee611a49565b5b6000611afd85828601611a97565b9250506020611b0e85828601611ac3565b9150509250929050565b600080600060608486031215611b3157611b30611a49565b5b6000611b3f86828701611a97565b9350506020611b5086828701611a97565b9250506040611b6186828701611ac3565b9150509250925092565b600060ff82169050919050565b611b8181611b6b565b82525050565b6000602082019050611b9c6000830184611b78565b92915050565b600080600060608486031215611bbb57611bba611a49565b5b6000611bc986828701611a97565b9350506020611bda86828701611a97565b9250506040611beb86828701611a97565b9150509250925092565b600060208284031215611c0b57611c0a611a49565b5b6000611c1984828501611ac3565b91505092915050565b600060208284031215611c3857611c37611a49565b5b6000611c4684828501611a97565b91505092915050565b611c5881611a6e565b82525050565b6000602082019050611c736000830184611c4f565b92915050565b60008060408385031215611c9057611c8f611a49565b5b6000611c9e85828601611a97565b9250506020611caf85828601611a97565b9150509250929050565b7f4e487b7100000000000000000000000000000000000000000000000000000000600052602260045260246000fd5b60006002820490506001821680611d0057607f821691505b602082108103611d1357611d12611cb9565b5b50919050565b7f496e697469616c20646973747269627574696f6e20616c726561647920636f6d60008201527f706c657465640000000000000000000000000000000000000000000000000000602082015250565b6000611d756026836119b3565b9150611d8082611d19565b604082019050919050565b60006020820190508181036000830152611da481611d68565b9050919050565b7f496e76616c696420616464726573730000000000000000000000000000000000600082015250565b6000611de1600f836119b3565b9150611dec82611dab565b602082019050919050565b60006020820190508181036000830152611e1081611dd4565b9050919050565b6000606082019050611e2c6000830186611c4f565b611e396020830185611c4f565b611e466040830184611c4f565b949350505050565b7f416d6f756e74206d7573742062652067726561746572207468616e2030000000600082015250565b6000611e84601d836119b3565b9150611e8f82611e4e565b602082019050919050565b60006020820190508181036000830152611eb381611e77565b9050919050565b7f496e73756666696369656e7420746f6b656e2062616c616e6365000000000000600082015250565b6000611ef0601a836119b3565b9150611efb82611eba565b602082019050919050565b60006020820190508181036000830152611f1f81611ee3565b9050919050565b7f4e487b7100000000000000000000000000000000000000000000000000000000600052601160045260246000fd5b6000611f60826118ae565b9150611f6b836118ae565b9250828202611f79816118ae565b91508282048414831517611f9057611f8f611f26565b5b5092915050565b7f4e487b7100000000000000000000000000000000000000000000000000000000600052601260045260246000fd5b6000611fd1826118ae565b9150611fdc836118ae565b925082611fec57611feb611f97565b5b828204905092915050565b7f496e73756666696369656e742045544820696e20636f6e747261637400000000600082015250565b600061202d601c836119b3565b915061203882611ff7565b602082019050919050565b6000602082019050818103600083015261205c81612020565b9050919050565b600081905092915050565b50565b600061207e600083612063565b91506120898261206e565b600082019050919050565b600061209f82612071565b9150819050919050565b7f455448207472616e73666572206661696c656400000000000000000000000000600082015250565b60006120df6013836119b3565b91506120ea826120a9565b602082019050919050565b6000602082019050818103600083015261210e816120d2565b9050919050565b600060408201905061212a60008301856118b8565b61213760208301846118b8565b9392505050565b7f496e76616c696420707269636500000000000000000000000000000000000000600082015250565b6000612174600d836119b3565b915061217f8261213e565b602082019050919050565b600060208201905081810360008301526121a381612167565b9050919050565b7f496e73756666696369656e74204554482073656e740000000000000000000000600082015250565b60006121e06015836119b3565b91506121eb826121aa565b602082019050919050565b6000602082019050818103600083015261220f816121d3565b9050919050565b7f496e697469616c20646973747269627574696f6e206e6f7420636f6d706c657460008201527f6564000000000000000000000000000000000000000000000000000000000000602082015250565b60006122726022836119b3565b915061227d82612216565b604082019050919050565b600060208201905081810360008301526122a181612265565b9050919050565b7f546f6b656e20616d6f756e7420746f6f20736d616c6c00000000000000000000600082015250565b60006122de6016836119b3565b91506122e9826122a8565b602082019050919050565b6000602082019050818103600083015261230d816122d1565b9050919050565b7f496e73756666696369656e7420746f6b656e7320696e20636f6e747261637400600082015250565b600061234a601f836119b3565b915061235582612314565b602082019050919050565b600060208201905081810360008301526123798161233d565b9050919050565b7f4e6f2045544820746f2077697468647261770000000000000000000000000000600082015250565b60006123b66012836119b3565b91506123c182612380565b602082019050919050565b600060208201905081810360008301526123e5816123a9565b9050919050565b60006060820190506124016000830186611c4f565b61240e60208301856118b8565b61241b60408301846118b8565b949350505050565b600061242e826118ae565b9150612439836118ae565b925082820190508082111561245157612450611f26565b5b9291505056fea2646970667358221220f68aa3f54055b6e9e4e032ffa5fd2a8e7275685c9edf2df20af6d488d9dde4b064736f6c634300081c0033",
  "linkReferences": {},
  "deployedLinkReferences": {}
}