{
  "_format": "hh-sol-artifact-1",
  "contractName": "YdToken",
  "sourceName": "contracts/YdToken.sol",
  "abi": [
    {
      "inputs": [],
      "stateMutability": "nonpayable",
      "type": "constructor"
    },
    {
      "inputs": [
        {
          "internalType": "address",
          "name": "spender",
          "type": "address"
        },
        {
          "internalType": "uint256",
          "name": "allowance",
          "type": "uint256"
        },
        {
          "internalType": "uint256",
          "name": "needed",
          "type": "uint256"
        }
      ],
      "name": "ERC20InsufficientAllowance",
      "type": "error"
    },
    {
      "inputs": [
        {
          "internalType": "address",
          "name": "sender",
          "type": "address"
        },
        {
          "internalType": "uint256",
          "name": "balance",
          "type": "uint256"
        },
        {
          "internalType": "uint256",
          "name": "needed",
          "type": "uint256"
        }
      ],
      "name": "ERC20InsufficientBalance",
      "type": "error"
    },
    {
      "inputs": [
        {
          "internalType": "address",
          "name": "approver",
          "type": "address"
        }
      ],
      "name": "ERC20InvalidApprover",
      "type": "error"
    },
    {
      "inputs": [
        {
          "internalType": "address",
          "name": "receiver",
          "type": "address"
        }
      ],
      "name": "ERC20InvalidReceiver",
      "type": "error"
    },
    {
      "inputs": [
        {
          "internalType": "address",
          "name": "sender",
          "type": "address"
        }
      ],
      "name": "ERC20InvalidSender",
      "type": "error"
    },
    {
      "inputs": [
        {
          "internalType": "address",
          "name": "spender",
          "type": "address"
        }
      ],
      "name": "ERC20InvalidSpender",
      "type": "error"
    },
    {
      "inputs": [
        {
          "internalType": "address",
          "name": "owner",
          "type": "address"
        }
      ],
      "name": "OwnableInvalidOwner",
      "type": "error"
    },
    {
      "inputs": [
        {
          "internalType": "address",
          "name": "account",
          "type": "address"
        }
      ],
      "name": "OwnableUnauthorizedAccount",
      "type": "error"
    },
    {
      "anonymous": false,
      "inputs": [
        {
          "indexed": true,
          "internalType": "address",
          "name": "owner",
          "type": "address"
        },
        {
          "indexed": true,
          "internalType": "address",
          "name": "spender",
          "type": "address"
        },
        {
          "indexed": false,
          "internalType": "uint256",
          "name": "value",
          "type": "uint256"
        }
      ],
      "name": "Approval",
      "type": "event"
    },
    {
      "anonymous": false,
      "inputs": [
        {
          "indexed": true,
          "internalType": "address",
          "name": "owner",
          "type": "address"
        },
        {
          "indexed": false,
          "internalType": "uint256",
          "name": "amount",
          "type": "uint256"
        }
      ],
      "name": "ETHWithdrawn",
      "type": "event"
    },
    {
      "anonymous": false,
      "inputs": [
        {
          "indexed": true,
          "internalType": "address",
          "name": "sender",
          "type": "address"
        },
        {
          "indexed": false,
          "internalType": "uint256",
          "name": "amount",
          "type": "uint256"
        },
        {
          "indexed": false,
          "internalType": "bytes",
          "name": "data",
          "type": "bytes"
        }
      ],
      "name": "FallbackCalled",
      "type": "event"
    },
    {
      "anonymous": false,
      "inputs": [
        {
          "indexed": false,
          "internalType": "address",
          "name": "teamWallet",
          "type": "address"
        },
        {
          "indexed": false,
          "internalType": "address",
          "name": "marketingWallet",
          "type": "address"
        },
        {
          "indexed": false,
          "internalType": "address",
          "name": "communityWallet",
          "type": "address"
        }
      ],
      "name": "InitialDistributionCompleted",
      "type": "event"
    },
    {
      "anonymous": false,
      "inputs": [
        {
          "indexed": true,
          "internalType": "address",
          "name": "previousOwner",
          "type": "address"
        },
        {
          "indexed": true,
          "internalType": "address",
          "name": "newOwner",
          "type": "address"
        }
      ],
      "name": "OwnershipTransferred",
      "type": "event"
    },
    {
      "anonymous": false,
      "inputs": [
        {
          "indexed": false,
          "internalType": "uint256",
          "name": "newPrice",
          "type": "uint256"
        }
      ],
      "name": "PriceUpdated",
      "type": "event"
    },
    {
      "anonymous": false,
      "inputs": [
        {
          "indexed": true,
          "internalType": "address",
          "name": "sender",
          "type": "address"
        },
        {
          "indexed": false,
          "internalType": "uint256",
          "name": "amount",
          "type": "uint256"
        }
      ],
      "name": "ReceivedETH",
      "type": "event"
    },
    {
      "anonymous": false,
      "inputs": [
        {
          "indexed": true,
          "internalType": "address",
          "name": "buyer",
          "type": "address"
        },
        {
          "indexed": false,
          "internalType": "uint256",
          "name": "ethAmount",
          "type": "uint256"
        },
        {
          "indexed": false,
          "internalType": "uint256",
          "name": "tokenAmount",
          "type": "uint256"
        }
      ],
      "name": "TokensPurchased",
      "type": "event"
    },
    {
      "anonymous": false,
      "inputs": [
        {
          "indexed": true,
          "internalType": "address",
          "name": "seller",
          "type": "address"
        },
        {
          "indexed": false,
          "internalType": "uint256",
          "name": "tokenAmount",
          "type": "uint256"
        },
        {
          "indexed": false,
          "internalType": "uint256",
          "name": "ethAmount",
          "type": "uint256"
        }
      ],
      "name": "TokensSold",
      "type": "event"
    },
    {
      "anonymous": false,
      "inputs": [
        {
          "indexed": true,
          "internalType": "address",
          "name": "from",
          "type": "address"
        },
        {
          "indexed": true,
          "internalType": "address",
          "name": "to",
          "type": "address"
        },
        {
          "indexed": false,
          "internalType": "uint256",
          "name": "value",
          "type": "uint256"
        }
      ],
      "name": "Transfer",
      "type": "event"
    },
    {
      "stateMutability": "payable",
      "type": "fallback"
    },
    {
      "inputs": [],
      "name": "COMMUNITY_ALLOCATION",
      "outputs": [
        {
          "internalType": "uint256",
          "name": "",
          "type": "uint256"
        }
      ],
      "stateMutability": "view",
      "type": "function"
    },
    {
      "inputs": [],
      "name": "MARKETING_ALLOCATION",
      "outputs": [
        {
          "internalType": "uint256",
          "name": "",
          "type": "uint256"
        }
      ],
      "stateMutability": "view",
      "type": "function"
    },
    {
      "inputs": [],
      "name": "MAX_SUPPLY",
      "outputs": [
        {
          "internalType": "uint256",
          "name": "",
          "type": "uint256"
        }
      ],
      "stateMutability": "view",
      "type": "function"
    },
    {
      "inputs": [],
      "name": "TEAM_ALLOCATION",
      "outputs": [
        {
          "internalType": "uint256",
          "name": "",
          "type": "uint256"
        }
      ],
      "stateMutability": "view",
      "type": "function"
    },
    {
      "inputs": [],
      "name": "TOKENS_PER_ETH",
      "outputs": [
        {
          "internalType": "uint256",
          "name": "",
          "type": "uint256"
        }
      ],
      "stateMutability": "view",
      "type": "function"
    },
    {
      "inputs": [
        {
          "internalType": "address",
          "name": "owner",
          "type": "address"
        },
        {
          "internalType": "address",
          "name": "spender",
          "type": "address"
        }
      ],
      "name": "allowance",
      "outputs": [
        {
          "internalType": "uint256",
          "name": "",
          "type": "uint256"
        }
      ],
      "stateMutability": "view",
      "type": "function"
    },
    {
      "inputs": [
        {
          "internalType": "address",
          "name": "spender",
          "type": "address"
        },
        {
          "internalType": "uint256",
          "name": "value",
          "type": "uint256"
        }
      ],
      "name": "approve",
      "outputs": [
        {
          "internalType": "bool",
          "name": "",
          "type": "bool"
        }
      ],
      "stateMutability": "nonpayable",
      "type": "function"
    },
    {
      "inputs": [
        {
          "internalType": "address",
          "name": "account",
          "type": "address"
        }
      ],
      "name": "balanceOf",
      "outputs": [
        {
          "internalType": "uint256",
          "name": "",
          "type": "uint256"
        }
      ],
      "stateMutability": "view",
      "type": "function"
    },
    {
      "inputs": [],
      "name": "buyTokens",
      "outputs": [],
      "stateMutability": "payable",
      "type": "function"
    },
    {
      "inputs": [],
      "name": "decimals",
      "outputs": [
        {
          "internalType": "uint8",
          "name": "",
          "type": "uint8"
        }
      ],
      "stateMutability": "pure",
      "type": "function"
    },
    {
      "inputs": [
        {
          "internalType": "address",
          "name": "teamWallet",
          "type": "address"
        },
        {
          "internalType": "address",
          "name": "marketingWallet",
          "type": "address"
        },
        {
          "internalType": "address",
          "name": "communityWallet",
          "type": "address"
        }
      ],
      "name": "distributeInitialTokens",
      "outputs": [],
      "stateMutability": "nonpayable",
      "type": "function"
    },
    {
      "inputs": [],
      "name": "getContractBalance",
      "outputs": [
        {
          "internalType": "uint256",
          "name": "",
          "type": "uint256"
        }
      ],
      "stateMutability": "view",
      "type": "function"
    },
    {
      "inputs": [],
      "name": "getContractTokenBalance",
      "outputs": [
        {
          "internalType": "uint256",
          "name": "",
          "type": "uint256"
        }
      ],
      "stateMutability": "view",
      "type": "function"
    },
    {
      "inputs": [],
      "name": "getCurrentPrice",
      "outputs": [
        {
          "internalType": "uint256",
          "name": "",
          "type": "uint256"
        }
      ],
      "stateMutability": "view",
      "type": "function"
    },
    {
      "inputs": [],
      "name": "initialDistributionDone",
      "outputs": [
        {
          "internalType": "bool",
          "name": "",
          "type": "bool"
        }
      ],
      "stateMutability": "view",
      "type": "function"
    },
    {
      "inputs": [],
      "name": "name",
      "outputs": [
        {
          "internalType": "string",
          "name": "",
          "type": "string"
        }
      ],
      "stateMutability": "view",
      "type": "function"
    },
    {
      "inputs": [],
      "name": "owner",
      "outputs": [
        {
          "internalType": "address",
          "name": "",
          "type": "address"
        }
      ],
      "stateMutability": "view",
      "type": "function"
    },
    {
      "inputs": [],
      "name": "price",
      "outputs": [
        {
          "internalType": "uint256",
          "name": "",
          "type": "uint256"
        }
      ],
      "stateMutability": "view",
      "type": "function"
    },
    {
      "inputs": [],
      "name": "renounceOwnership",
      "outputs": [],
      "stateMutability": "nonpayable",
      "type": "function"
    },
    {
      "inputs": [
        {
          "internalType": "uint256",
          "name": "tokenAmount",
          "type": "uint256"
        }
      ],
      "name": "sellTokens",
      "outputs": [],
      "stateMutability": "nonpayable",
      "type": "function"
    },
    {
      "inputs": [],
      "name": "symbol",
      "outputs": [
        {
          "internalType": "string",
          "name": "",
          "type": "string"
        }
      ],
      "stateMutability": "view",
      "type": "function"
    },
    {
      "inputs": [],
      "name": "totalSupply",
      "outputs": [
        {
          "internalType": "uint256",
          "name": "",
          "type": "uint256"
        }
      ],
      "stateMutability": "view",
      "type": "function"
    },
    {
      "inputs": [
        {
          "internalType": "address",
          "name": "to",
          "type": "address"
        },
        {
          "internalType": "uint256",
          "name": "value",
          "type": "uint256"
        }
      ],
      "name": "transfer",
      "outputs": [
        {
          "internalType": "bool",
          "name": "",
          "type": "bool"
        }
      ],
      "stateMutability": "nonpayable",
      "type": "function"
    },
    {
      "inputs": [
        {
          "internalType": "address",
          "name": "from",
          "type": "address"
        },
        {
          "internalType": "address",
          "name": "to",
          "type": "address"
        },
        {
          "internalType": "uint256",
          "name": "value",
          "type": "uint256"
        }
      ],
      "name": "transferFrom",
      "outputs": [
        {
          "internalType": "bool",
          "name": "",
          "type": "bool"
        }
      ],
      "stateMutability": "nonpayable",
      "type": "function"
    },
    {
      "inputs": [
        {
          "internalType": "address",
          "name": "newOwner",
          "type": "address"
        }
      ],
      "name": "transferOwnership",
      "outputs": [],
      "stateMutability": "nonpayable",
      "type": "function"
    },
    {
      "inputs": [
        {
          "internalType": "uint256",
          "name": "newPrice",
          "type": "uint256"
        }
      ],
      "name": "updatePrice",
      "outputs": [],
      "stateMutability": "nonpayable",
      "type": "function"
    },
    {
      "inputs": [],
      "name": "withdrawETH",
      "outputs": [],
      "stateMutability": "nonpayable",
      "type": "function"
    },
    {
      "stateMutability": "payable",
      "type": "receive"
    }
  ],
  "bytecode": "0x608060405266038d7ea4c6800060065534801561001b57600080fd5b50336040518060400160405280600c81526020017f596944656e6720546f6b656e00000000000000000000000000000000000000008152506040518060400160405280600281526020017f594400000000000000000000000000000000000000000000000000000000000081525081600390816100989190610708565b5080600490816100a89190610708565b505050600073ffffffffffffffffffffffffffffffffffffffff168173ffffffffffffffffffffffffffffffffffffffff160361011d5760006040517f1e4fbdf7000000000000000000000000000000000000000000000000000000008152600401610114919061081b565b60405180910390fd5b61012c8161014560201b60201c565b5061014030620f424061020b60201b60201c565b6108fa565b6000600560009054906101000a900473ffffffffffffffffffffffffffffffffffffffff16905081600560006101000a81548173ffffffffffffffffffffffffffffffffffffffff021916908373ffffffffffffffffffffffffffffffffffffffff1602179055508173ffffffffffffffffffffffffffffffffffffffff168173ffffffffffffffffffffffffffffffffffffffff167f8be0079c531659141344cd1fd0a4f28419497f9722a3daafe3b4186f6b6457e060405160405180910390a35050565b600073ffffffffffffffffffffffffffffffffffffffff168273ffffffffffffffffffffffffffffffffffffffff160361027d5760006040517fec442f05000000000000000000000000000000000000000000000000000000008152600401610274919061081b565b60405180910390fd5b61028f6000838361029360201b60201c565b5050565b600073ffffffffffffffffffffffffffffffffffffffff168373ffffffffffffffffffffffffffffffffffffffff16036102e55780600260008282546102d99190610865565b925050819055506103b8565b60008060008573ffffffffffffffffffffffffffffffffffffffff1673ffffffffffffffffffffffffffffffffffffffff16815260200190815260200160002054905081811015610371578381836040517fe450d38c000000000000000000000000000000000000000000000000000000008152600401610368939291906108a8565b60405180910390fd5b8181036000808673ffffffffffffffffffffffffffffffffffffffff1673ffffffffffffffffffffffffffffffffffffffff16815260200190815260200160002081905550505b600073ffffffffffffffffffffffffffffffffffffffff168273ffffffffffffffffffffffffffffffffffffffff1603610401578060026000828254039250508190555061044e565b806000808473ffffffffffffffffffffffffffffffffffffffff1673ffffffffffffffffffffffffffffffffffffffff168152602001908152602001600020600082825401925050819055505b8173ffffffffffffffffffffffffffffffffffffffff168373ffffffffffffffffffffffffffffffffffffffff167fddf252ad1be2c89b69c2b068fc378daa952ba7f163c4a11628f55a4df523b3ef836040516104ab91906108df565b60405180910390a3505050565b600081519050919050565b7f4e487b7100000000000000000000000000000000000000000000000000000000600052604160045260246000fd5b7f4e487b7100000000000000000000000000000000000000000000000000000000600052602260045260246000fd5b6000600282049050600182168061053957607f821691505b60208210810361054c5761054b6104f2565b5b50919050565b60008190508160005260206000209050919050565b60006020601f8301049050919050565b600082821b905092915050565b6000600883026105b47fffffffffffffffffffffffffffffffffffffffffffffffffffffffffffffffff82610577565b6105be8683610577565b95508019841693508086168417925050509392505050565b6000819050919050565b6000819050919050565b60006106056106006105fb846105d6565b6105e0565b6105d6565b9050919050565b6000819050919050565b61061f836105ea565b61063361062b8261060c565b848454610584565b825550505050565b600090565b61064861063b565b610653818484610616565b505050565b5b818110156106775761066c600082610640565b600181019050610659565b5050565b601f8211156106bc5761068d81610552565b61069684610567565b810160208510156106a5578190505b6106b96106b185610567565b830182610658565b50505b505050565b600082821c905092915050565b60006106df600019846008026106c1565b1980831691505092915050565b60006106f883836106ce565b9150826002028217905092915050565b610711826104b8565b67ffffffffffffffff81111561072a576107296104c3565b5b6107348254610521565b61073f82828561067b565b600060209050601f8311600181146107725760008415610760578287015190505b61076a85826106ec565b8655506107d2565b601f19841661078086610552565b60005b828110156107a857848901518255600182019150602085019450602081019050610783565b868310156107c557848901516107c1601f8916826106ce565b8355505b6001600288020188555050505b505050505050565b600073ffffffffffffffffffffffffffffffffffffffff82169050919050565b6000610805826107da565b9050919050565b610815816107fa565b82525050565b6000602082019050610830600083018461080c565b92915050565b7f4e487b7100000000000000000000000000000000000000000000000000000000600052601160045260246000fd5b6000610870826105d6565b915061087b836105d6565b925082820190508082111561089357610892610836565b5b92915050565b6108a2816105d6565b82525050565b60006060820190506108bd600083018661080c565b6108ca6020830185610899565b6108d76040830184610899565b949350505050565b60006020820190506108f46000830184610899565b92915050565b61248c806109096000396000f3fe6080604052600436106101a05760003560e01c80638da5cb5b116100ec578063d0febe4c1161008a578063e492c5a911610064578063e492c5a914610634578063eb91d37e1461065d578063f2fde38b14610688578063fd99cbed146106b1576101f5565b8063d0febe4c146105d6578063dd62ed3e146105e0578063e086e5ec1461061d576101f5565b8063993eb1c5116100c6578063993eb1c514610518578063a035b1fe14610543578063a9059cbb1461056e578063bc6e6604146105ab576101f5565b80638da5cb5b146104975780638e80bd39146104c257806395d89b41146104ed576101f5565b8063317d9453116101595780636f9fb98a116101335780636f9fb98a146103ef57806370a082311461041a578063715018a6146104575780638d6cc56d1461046e576101f5565b8063317d94531461037057806332cb6b0c1461039b5780636c11bcd3146103c6576101f5565b80630535ec771461024a57806306fdde0314610275578063095ea7b3146102a057806318160ddd146102dd57806323b872dd14610308578063313ce56714610345576101f5565b366101f5573373ffffffffffffffffffffffffffffffffffffffff167f4103257eaac983ca79a70d28f90dfc4fa16b619bb0c17ee7cab0d4034c279624346040516101eb91906118c6565b60405180910390a2005b3373ffffffffffffffffffffffffffffffffffffffff167faca09dd456ca888dccf8cc966e382e6e3042bb7e4d2d7815015f844edeafce42346000366040516102409392919061193f565b60405180910390a2005b34801561025657600080fd5b5061025f6106dc565b60405161026c919061198c565b60405180910390f35b34801561028157600080fd5b5061028a6106ef565b6040516102979190611a26565b60405180910390f35b3480156102ac57600080fd5b506102c760048036038101906102c29190611ad7565b610781565b6040516102d4919061198c565b60405180910390f35b3480156102e957600080fd5b506102f26107a4565b6040516102ff91906118c6565b60405180910390f35b34801561031457600080fd5b5061032f600480360381019061032a9190611b17565b6107ae565b60405161033c919061198c565b60405180910390f35b34801561035157600080fd5b5061035a6107dd565b6040516103679190611b86565b60405180910390f35b34801561037c57600080fd5b506103856107e2565b60405161039291906118c6565b60405180910390f35b3480156103a757600080fd5b506103b06107f2565b6040516103bd91906118c6565b60405180910390f35b3480156103d257600080fd5b506103ed60048036038101906103e89190611ba1565b6107f9565b005b3480156103fb57600080fd5b506104046109fb565b60405161041191906118c6565b60405180910390f35b34801561042657600080fd5b50610441600480360381019061043c9190611bce565b610a03565b60405161044e91906118c6565b60405180910390f35b34801561046357600080fd5b5061046c610a4b565b005b34801561047a57600080fd5b5061049560048036038101906104909190611ba1565b610a5f565b005b3480156104a357600080fd5b506104ac610aeb565b6040516104b99190611c0a565b60405180910390f35b3480156104ce57600080fd5b506104d7610b15565b6040516104e491906118c6565b60405180910390f35b3480156104f957600080fd5b50610502610b1c565b60405161050f9190611a26565b60405180910390f35b34801561052457600080fd5b5061052d610bae565b60405161053a91906118c6565b60405180910390f35b34801561054f57600080fd5b50610558610bb5565b60405161056591906118c6565b60405180910390f35b34801561057a57600080fd5b5061059560048036038101906105909190611ad7565b610bbb565b6040516105a2919061198c565b60405180910390f35b3480156105b757600080fd5b506105c0610bde565b6040516105cd91906118c6565b60405180910390f35b6105de610be4565b005b3480156105ec57600080fd5b5061060760048036038101906106029190611c25565b610d89565b60405161061491906118c6565b60405180910390f35b34801561062957600080fd5b50610632610e10565b005b34801561064057600080fd5b5061065b60048036038101906106569190611c65565b610f6c565b005b34801561066957600080fd5b5061067261112b565b60405161067f91906118c6565b60405180910390f35b34801561069457600080fd5b506106af60048036038101906106aa9190611bce565b611135565b005b3480156106bd57600080fd5b506106c66111bb565b6040516106d391906118c6565b60405180910390f35b600760009054906101000a900460ff1681565b6060600380546106fe90611ce7565b80601f016020809104026020016040519081016040528092919081815260200182805461072a90611ce7565b80156107775780601f1061074c57610100808354040283529160200191610777565b820191906000526020600020905b81548152906001019060200180831161075a57829003601f168201915b5050505050905090565b60008061078c6111c2565b90506107998185856111ca565b600191505092915050565b6000600254905090565b6000806107b96111c2565b90506107c68582856111dc565b6107d1858585611270565b60019150509392505050565b600090565b60006107ed30610a03565b905090565b620f424081565b6000811161083c576040517f08c379a000000000000000000000000000000000000000000000000000000000815260040161083390611d64565b60405180910390fd5b8061084633610a03565b1015610887576040517f08c379a000000000000000000000000000000000000000000000000000000000815260040161087e90611dd0565b60405180910390fd5b60006103e8670de0b6b3a7640000836108a09190611e1f565b6108aa9190611e90565b9050804710156108ef576040517f08c379a00000000000000000000000000000000000000000000000000000000081526004016108e690611f0d565b60405180910390fd5b6108fa333084611270565b60003373ffffffffffffffffffffffffffffffffffffffff168260405161092090611f5e565b60006040518083038185875af1925050503d806000811461095d576040519150601f19603f3d011682016040523d82523d6000602084013e610962565b606091505b50509050806109a6576040517f08c379a000000000000000000000000000000000000000000000000000000000815260040161099d90611fbf565b60405180910390fd5b3373ffffffffffffffffffffffffffffffffffffffff167f2dcf9433d75db0d8b1c172641f85e319ffe4ad22e108a95d1847ceb906e5195d84846040516109ee929190611fdf565b60405180910390a2505050565b600047905090565b60008060008373ffffffffffffffffffffffffffffffffffffffff1673ffffffffffffffffffffffffffffffffffffffff168152602001908152602001600020549050919050565b610a53611364565b610a5d60006113eb565b565b610a67611364565b60008111610aaa576040517f08c379a0000000000000000000000000000000000000000000000000000000008152600401610aa190612054565b60405180910390fd5b806006819055507f66cbca4f3c64fecf1dcb9ce094abcf7f68c3450a1d4e3a8e917dd621edb4ebe081604051610ae091906118c6565b60405180910390a150565b6000600560009054906101000a900473ffffffffffffffffffffffffffffffffffffffff16905090565b620186a081565b606060048054610b2b90611ce7565b80601f0160208091040260200160405190810160405280929190818152602001828054610b5790611ce7565b8015610ba45780601f10610b7957610100808354040283529160200191610ba4565b820191906000526020600020905b815481529060010190602001808311610b8757829003601f168201915b5050505050905090565b620186a081565b60065481565b600080610bc66111c2565b9050610bd3818585611270565b600191505092915050565b6103e881565b600654341015610c29576040517f08c379a0000000000000000000000000000000000000000000000000000000008152600401610c20906120c0565b60405180910390fd5b600760009054906101000a900460ff16610c78576040517f08c379a0000000000000000000000000000000000000000000000000000000008152600401610c6f90612152565b60405180910390fd5b6000670de0b6b3a76400006103e834610c919190611e1f565b610c9b9190611e90565b905060008111610ce0576040517f08c379a0000000000000000000000000000000000000000000000000000000008152600401610cd7906121be565b60405180910390fd5b80610cea30610a03565b1015610d2b576040517f08c379a0000000000000000000000000000000000000000000000000000000008152600401610d229061222a565b60405180910390fd5b610d36303383611270565b3373ffffffffffffffffffffffffffffffffffffffff167f8fafebcaf9d154343dad25669bfa277f4fbacd7ac6b0c4fed522580e040a0f333483604051610d7e929190611fdf565b60405180910390a250565b6000600160008473ffffffffffffffffffffffffffffffffffffffff1673ffffffffffffffffffffffffffffffffffffffff16815260200190815260200160002060008373ffffffffffffffffffffffffffffffffffffffff1673ffffffffffffffffffffffffffffffffffffffff16815260200190815260200160002054905092915050565b610e18611364565b600047905060008111610e60576040517f08c379a0000000000000000000000000000000000000000000000000000000008152600401610e5790612296565b60405180910390fd5b6000610e6a610aeb565b73ffffffffffffffffffffffffffffffffffffffff1682604051610e8d90611f5e565b60006040518083038185875af1925050503d8060008114610eca576040519150601f19603f3d011682016040523d82523d6000602084013e610ecf565b606091505b5050905080610f13576040517f08c379a0000000000000000000000000000000000000000000000000000000008152600401610f0a90611fbf565b60405180910390fd5b610f1b610aeb565b73ffffffffffffffffffffffffffffffffffffffff167f94b2de810873337ed265c5f8cf98c9cffefa06b8607f9a2f1fbaebdfbcfbef1c83604051610f6091906118c6565b60405180910390a25050565b610f74611364565b600760009054906101000a900460ff1615610fc4576040517f08c379a0000000000000000000000000000000000000000000000000000000008152600401610fbb90612328565b60405180910390fd5b600073ffffffffffffffffffffffffffffffffffffffff168373ffffffffffffffffffffffffffffffffffffffff161415801561102e5750600073ffffffffffffffffffffffffffffffffffffffff168273ffffffffffffffffffffffffffffffffffffffff1614155b80156110675750600073ffffffffffffffffffffffffffffffffffffffff168173ffffffffffffffffffffffffffffffffffffffff1614155b6110a6576040517f08c379a000000000000000000000000000000000000000000000000000000000815260040161109d90612394565b60405180910390fd5b6110b4308462030d40611270565b6110c23083620186a0611270565b6110d03082620186a0611270565b6001600760006101000a81548160ff0219169083151502179055507f4864f7df2cd1c07972b3dbf1a98de81ddd7d784caf0078d5e5e372b219f6695c83838360405161111e939291906123b4565b60405180910390a1505050565b6000600654905090565b61113d611364565b600073ffffffffffffffffffffffffffffffffffffffff168173ffffffffffffffffffffffffffffffffffffffff16036111af5760006040517f1e4fbdf70000000000000000000000000000000000000000000000000000000081526004016111a69190611c0a565b60405180910390fd5b6111b8816113eb565b50565b62030d4081565b600033905090565b6111d783838360016114b1565b505050565b60006111e88484610d89565b90507fffffffffffffffffffffffffffffffffffffffffffffffffffffffffffffffff811461126a578181101561125a578281836040517ffb8f41b2000000000000000000000000000000000000000000000000000000008152600401611251939291906123eb565b60405180910390fd5b611269848484840360006114b1565b5b50505050565b600073ffffffffffffffffffffffffffffffffffffffff168373ffffffffffffffffffffffffffffffffffffffff16036112e25760006040517f96c6fd1e0000000000000000000000000000000000000000000000000000000081526004016112d99190611c0a565b60405180910390fd5b600073ffffffffffffffffffffffffffffffffffffffff168273ffffffffffffffffffffffffffffffffffffffff16036113545760006040517fec442f0500000000000000000000000000000000000000000000000000000000815260040161134b9190611c0a565b60405180910390fd5b61135f838383611688565b505050565b61136c6111c2565b73ffffffffffffffffffffffffffffffffffffffff1661138a610aeb565b73ffffffffffffffffffffffffffffffffffffffff16146113e9576113ad6111c2565b6040517f118cdaa70000000000000000000000000000000000000000000000000000000081526004016113e09190611c0a565b60405180910390fd5b565b6000600560009054906101000a900473ffffffffffffffffffffffffffffffffffffffff16905081600560006101000a81548173ffffffffffffffffffffffffffffffffffffffff021916908373ffffffffffffffffffffffffffffffffffffffff1602179055508173ffffffffffffffffffffffffffffffffffffffff168173ffffffffffffffffffffffffffffffffffffffff167f8be0079c531659141344cd1fd0a4f28419497f9722a3daafe3b4186f6b6457e060405160405180910390a35050565b600073ffffffffffffffffffffffffffffffffffffffff168473ffffffffffffffffffffffffffffffffffffffff16036115235760006040517fe602df0500000000000000000000000000000000000000000000000000000000815260040161151a9190611c0a565b60405180910390fd5b600073ffffffffffffffffffffffffffffffffffffffff168373ffffffffffffffffffffffffffffffffffffffff16036115955760006040517f94280d6200000000000000000000000000000000000000000000000000000000815260040161158c9190611c0a565b60405180910390fd5b81600160008673ffffffffffffffffffffffffffffffffffffffff1673ffffffffffffffffffffffffffffffffffffffff16815260200190815260200160002060008573ffffffffffffffffffffffffffffffffffffffff1673ffffffffffffffffffffffffffffffffffffffff168152602001908152602001600020819055508015611682578273ffffffffffffffffffffffffffffffffffffffff168473ffffffffffffffffffffffffffffffffffffffff167f8c5be1e5ebec7d5bd14f71427d1e84f3dd0314c0f7b2291e5b200ac8c7c3b9258460405161167991906118c6565b60405180910390a35b50505050565b600073ffffffffffffffffffffffffffffffffffffffff168373ffffffffffffffffffffffffffffffffffffffff16036116da5780600260008282546116ce9190612422565b925050819055506117ad565b60008060008573ffffffffffffffffffffffffffffffffffffffff1673ffffffffffffffffffffffffffffffffffffffff16815260200190815260200160002054905081811015611766578381836040517fe450d38c00000000000000000000000000000000000000000000000000000000815260040161175d939291906123eb565b60405180910390fd5b8181036000808673ffffffffffffffffffffffffffffffffffffffff1673ffffffffffffffffffffffffffffffffffffffff16815260200190815260200160002081905550505b600073ffffffffffffffffffffffffffffffffffffffff168273ffffffffffffffffffffffffffffffffffffffff16036117f65780600260008282540392505081905550611843565b806000808473ffffffffffffffffffffffffffffffffffffffff1673ffffffffffffffffffffffffffffffffffffffff168152602001908152602001600020600082825401925050819055505b8173ffffffffffffffffffffffffffffffffffffffff168373ffffffffffffffffffffffffffffffffffffffff167fddf252ad1be2c89b69c2b068fc378daa952ba7f163c4a11628f55a4df523b3ef836040516118a091906118c6565b60405180910390a3505050565b6000819050919050565b6118c0816118ad565b82525050565b60006020820190506118db60008301846118b7565b92915050565b600082825260208201905092915050565b82818337600083830152505050565b6000601f19601f8301169050919050565b600061191e83856118e1565b935061192b8385846118f2565b61193483611901565b840190509392505050565b600060408201905061195460008301866118b7565b8181036020830152611967818486611912565b9050949350505050565b60008115159050919050565b61198681611971565b82525050565b60006020820190506119a1600083018461197d565b92915050565b600081519050919050565b600082825260208201905092915050565b60005b838110156119e15780820151818401526020810190506119c6565b60008484015250505050565b60006119f8826119a7565b611a0281856119b2565b9350611a128185602086016119c3565b611a1b81611901565b840191505092915050565b60006020820190508181036000830152611a4081846119ed565b905092915050565b600080fd5b600073ffffffffffffffffffffffffffffffffffffffff82169050919050565b6000611a7882611a4d565b9050919050565b611a8881611a6d565b8114611a9357600080fd5b50565b600081359050611aa581611a7f565b92915050565b611ab4816118ad565b8114611abf57600080fd5b50565b600081359050611ad181611aab565b92915050565b60008060408385031215611aee57611aed611a48565b5b6000611afc85828601611a96565b9250506020611b0d85828601611ac2565b9150509250929050565b600080600060608486031215611b3057611b2f611a48565b5b6000611b3e86828701611a96565b9350506020611b4f86828701611a96565b9250506040611b6086828701611ac2565b9150509250925092565b600060ff82169050919050565b611b8081611b6a565b82525050565b6000602082019050611b9b6000830184611b77565b92915050565b600060208284031215611bb757611bb6611a48565b5b6000611bc584828501611ac2565b91505092915050565b600060208284031215611be457611be3611a48565b5b6000611bf284828501611a96565b91505092915050565b611c0481611a6d565b82525050565b6000602082019050611c1f6000830184611bfb565b92915050565b60008060408385031215611c3c57611c3b611a48565b5b6000611c4a85828601611a96565b9250506020611c5b85828601611a96565b9150509250929050565b600080600060608486031215611c7e57611c7d611a48565b5b6000611c8c86828701611a96565b9350506020611c9d86828701611a96565b9250506040611cae86828701611a96565b9150509250925092565b7f4e487b7100000000000000000000000000000000000000000000000000000000600052602260045260246000fd5b60006002820490506001821680611cff57607f821691505b602082108103611d1257611d11611cb8565b5b50919050565b7f416d6f756e74206d7573742062652067726561746572207468616e2030000000600082015250565b6000611d4e601d836119b2565b9150611d5982611d18565b602082019050919050565b60006020820190508181036000830152611d7d81611d41565b9050919050565b7f496e73756666696369656e7420746f6b656e2062616c616e6365000000000000600082015250565b6000611dba601a836119b2565b9150611dc582611d84565b602082019050919050565b60006020820190508181036000830152611de981611dad565b9050919050565b7f4e487b7100000000000000000000000000000000000000000000000000000000600052601160045260246000fd5b6000611e2a826118ad565b9150611e35836118ad565b9250828202611e43816118ad565b91508282048414831517611e5a57611e59611df0565b5b5092915050565b7f4e487b7100000000000000000000000000000000000000000000000000000000600052601260045260246000fd5b6000611e9b826118ad565b9150611ea6836118ad565b925082611eb657611eb5611e61565b5b828204905092915050565b7f496e73756666696369656e742045544820696e20636f6e747261637400000000600082015250565b6000611ef7601c836119b2565b9150611f0282611ec1565b602082019050919050565b60006020820190508181036000830152611f2681611eea565b9050919050565b600081905092915050565b50565b6000611f48600083611f2d565b9150611f5382611f38565b600082019050919050565b6000611f6982611f3b565b9150819050919050565b7f455448207472616e73666572206661696c656400000000000000000000000000600082015250565b6000611fa96013836119b2565b9150611fb482611f73565b602082019050919050565b60006020820190508181036000830152611fd881611f9c565b9050919050565b6000604082019050611ff460008301856118b7565b61200160208301846118b7565b9392505050565b7f496e76616c696420707269636500000000000000000000000000000000000000600082015250565b600061203e600d836119b2565b915061204982612008565b602082019050919050565b6000602082019050818103600083015261206d81612031565b9050919050565b7f496e73756666696369656e74204554482073656e740000000000000000000000600082015250565b60006120aa6015836119b2565b91506120b582612074565b602082019050919050565b600060208201905081810360008301526120d98161209d565b9050919050565b7f496e697469616c20646973747269627574696f6e206e6f7420636f6d706c657460008201527f6564000000000000000000000000000000000000000000000000000000000000602082015250565b600061213c6022836119b2565b9150612147826120e0565b604082019050919050565b6000602082019050818103600083015261216b8161212f565b9050919050565b7f546f6b656e20616d6f756e7420746f6f20736d616c6c00000000000000000000600082015250565b60006121a86016836119b2565b91506121b382612172565b602082019050919050565b600060208201905081810360008301526121d78161219b565b9050919050565b7f496e73756666696369656e7420746f6b656e7320696e20636f6e747261637400600082015250565b6000612214601f836119b2565b915061221f826121de565b602082019050919050565b6000602082019050818103600083015261224381612207565b9050919050565b7f4e6f2045544820746f2077697468647261770000000000000000000000000000600082015250565b60006122806012836119b2565b915061228b8261224a565b602082019050919050565b600060208201905081810360008301526122af81612273565b9050919050565b7f496e697469616c20646973747269627574696f6e20616c726561647920636f6d60008201527f706c657465640000000000000000000000000000000000000000000000000000602082015250565b60006123126026836119b2565b915061231d826122b6565b604082019050919050565b6000602082019050818103600083015261234181612305565b9050919050565b7f496e76616c696420616464726573730000000000000000000000000000000000600082015250565b600061237e600f836119b2565b915061238982612348565b602082019050919050565b600060208201905081810360008301526123ad81612371565b9050919050565b60006060820190506123c96000830186611bfb565b6123d66020830185611bfb565b6123e36040830184611bfb565b949350505050565b60006060820190506124006000830186611bfb565b61240d60208301856118b7565b61241a60408301846118b7565b949350505050565b600061242d826118ad565b9150612438836118ad565b92508282019050808211156124505761244f611df0565b5b9291505056fea2646970667358221220b60669d359cb617dafce4ac29aaec2ea3da0ad02f971b55d8cf713b30c10c69464736f6c634300081c0033",
  "linkReferences": {},
  "deployedLinkReferences": {}
}